{
	"contracts/EmployeeStorage.sol": {
		"EmployeeStorage": {
			"abi": [
				{
					"inputs": [
						{
							"internalType": "uint16",
							"name": "_shares",
							"type": "uint16"
						},
						{
							"internalType": "string",
							"name": "_name",
							"type": "string"
						},
						{
							"internalType": "uint24",
							"name": "_salary",
							"type": "uint24"
						},
						{
							"internalType": "uint256",
							"name": "_idNumber",
							"type": "uint256"
						}
					],
					"stateMutability": "nonpayable",
					"type": "constructor"
				},
				{
					"inputs": [
						{
							"internalType": "uint256",
							"name": "totalShares",
							"type": "uint256"
						}
					],
					"name": "TooManyShares",
					"type": "error"
				},
				{
					"inputs": [
						{
							"internalType": "uint256",
							"name": "_slot",
							"type": "uint256"
						}
					],
					"name": "checkForPacking",
					"outputs": [
						{
							"internalType": "uint256",
							"name": "r",
							"type": "uint256"
						}
					],
					"stateMutability": "view",
					"type": "function"
				},
				{
					"inputs": [],
					"name": "debugResetShares",
					"outputs": [],
					"stateMutability": "nonpayable",
					"type": "function"
				},
				{
					"inputs": [
						{
							"internalType": "uint16",
							"name": "_newShares",
							"type": "uint16"
						}
					],
					"name": "grantShares",
					"outputs": [],
					"stateMutability": "nonpayable",
					"type": "function"
				},
				{
					"inputs": [],
					"name": "idNumber",
					"outputs": [
						{
							"internalType": "uint256",
							"name": "",
							"type": "uint256"
						}
					],
					"stateMutability": "view",
					"type": "function"
				},
				{
					"inputs": [],
					"name": "name",
					"outputs": [
						{
							"internalType": "string",
							"name": "",
							"type": "string"
						}
					],
					"stateMutability": "view",
					"type": "function"
				},
				{
					"inputs": [],
					"name": "viewSalary",
					"outputs": [
						{
							"internalType": "uint24",
							"name": "",
							"type": "uint24"
						}
					],
					"stateMutability": "view",
					"type": "function"
				},
				{
					"inputs": [],
					"name": "viewShares",
					"outputs": [
						{
							"internalType": "uint16",
							"name": "",
							"type": "uint16"
						}
					],
					"stateMutability": "view",
					"type": "function"
				}
			],
			"devdoc": {
				"author": "anakvad.base.eth https://docs.base.org/base-learn/docs/storage/storage-exercise",
				"kind": "dev",
				"methods": {},
				"title": "Storage Exercise",
				"version": 1
			},
			"evm": {
				"assembly": "    /* \"contracts/EmployeeStorage.sol\":196:3063  contract EmployeeStorage {... */\n  mstore(0x40, 0x80)\n    /* \"contracts/EmployeeStorage.sol\":1139:1332  constructor (uint16 _shares, string memory _name, uint24 _salary, uint _idNumber) {... */\n  callvalue\n  dup1\n  iszero\n  tag_1\n  jumpi\n  revert(0x00, 0x00)\ntag_1:\n  pop\n  mload(0x40)\n  sub(codesize, bytecodeSize)\n  dup1\n  bytecodeSize\n  dup4\n  codecopy\n  dup2\n  dup2\n  add\n  0x40\n  mstore\n  dup2\n  add\n  swap1\n  tag_2\n  swap2\n  swap1\n  tag_3\n  jump\t// in\ntag_2:\n    /* \"contracts/EmployeeStorage.sol\":1240:1247  _shares */\n  dup4\n    /* \"contracts/EmployeeStorage.sol\":1231:1237  shares */\n  0x00\n  0x00\n    /* \"contracts/EmployeeStorage.sol\":1231:1247  shares = _shares */\n  0x0100\n  exp\n  dup2\n  sload\n  dup2\n  0xffff\n  mul\n  not\n  and\n  swap1\n  dup4\n  0xffff\n  and\n  mul\n  or\n  swap1\n  sstore\n  pop\n    /* \"contracts/EmployeeStorage.sol\":1266:1273  _salary */\n  dup2\n    /* \"contracts/EmployeeStorage.sol\":1257:1263  salary */\n  0x00\n  0x02\n    /* \"contracts/EmployeeStorage.sol\":1257:1273  salary = _salary */\n  0x0100\n  exp\n  dup2\n  sload\n  dup2\n  0xffffff\n  mul\n  not\n  and\n  swap1\n  dup4\n  0xffffff\n  and\n  mul\n  or\n  swap1\n  sstore\n  pop\n    /* \"contracts/EmployeeStorage.sol\":1294:1303  _idNumber */\n  dup1\n    /* \"contracts/EmployeeStorage.sol\":1283:1291  idNumber */\n  0x01\n    /* \"contracts/EmployeeStorage.sol\":1283:1303  idNumber = _idNumber */\n  dup2\n  swap1\n  sstore\n  pop\n    /* \"contracts/EmployeeStorage.sol\":1320:1325  _name */\n  dup3\n    /* \"contracts/EmployeeStorage.sol\":1313:1317  name */\n  0x02\n    /* \"contracts/EmployeeStorage.sol\":1313:1325  name = _name */\n  swap1\n  dup2\n  tag_6\n  swap2\n  swap1\n  tag_7\n  jump\t// in\ntag_6:\n  pop\n    /* \"contracts/EmployeeStorage.sol\":1139:1332  constructor (uint16 _shares, string memory _name, uint24 _salary, uint _idNumber) {... */\n  pop\n  pop\n  pop\n  pop\n    /* \"contracts/EmployeeStorage.sol\":196:3063  contract EmployeeStorage {... */\n  jump(tag_8)\n    /* \"#utility.yul\":7:82   */\ntag_9:\n    /* \"#utility.yul\":40:46   */\n  0x00\n    /* \"#utility.yul\":73:75   */\n  0x40\n    /* \"#utility.yul\":67:76   */\n  mload\n    /* \"#utility.yul\":57:76   */\n  swap1\n  pop\n    /* \"#utility.yul\":7:82   */\n  swap1\n  jump\t// out\n    /* \"#utility.yul\":88:205   */\ntag_10:\n    /* \"#utility.yul\":197:198   */\n  0x00\n    /* \"#utility.yul\":194:195   */\n  0x00\n    /* \"#utility.yul\":187:199   */\n  revert\n    /* \"#utility.yul\":211:328   */\ntag_11:\n    /* \"#utility.yul\":320:321   */\n  0x00\n    /* \"#utility.yul\":317:318   */\n  0x00\n    /* \"#utility.yul\":310:322   */\n  revert\n    /* \"#utility.yul\":334:423   */\ntag_12:\n    /* \"#utility.yul\":370:377   */\n  0x00\n    /* \"#utility.yul\":410:416   */\n  0xffff\n    /* \"#utility.yul\":403:408   */\n  dup3\n    /* \"#utility.yul\":399:417   */\n  and\n    /* \"#utility.yul\":388:417   */\n  swap1\n  pop\n    /* \"#utility.yul\":334:423   */\n  swap2\n  swap1\n  pop\n  jump\t// out\n    /* \"#utility.yul\":429:549   */\ntag_13:\n    /* \"#utility.yul\":501:524   */\n  tag_55\n    /* \"#utility.yul\":518:523   */\n  dup2\n    /* \"#utility.yul\":501:524   */\n  tag_12\n  jump\t// in\ntag_55:\n    /* \"#utility.yul\":494:499   */\n  dup2\n    /* \"#utility.yul\":491:525   */\n  eq\n    /* \"#utility.yul\":481:543   */\n  tag_56\n  jumpi\n    /* \"#utility.yul\":539:540   */\n  0x00\n    /* \"#utility.yul\":536:537   */\n  0x00\n    /* \"#utility.yul\":529:541   */\n  revert\n    /* \"#utility.yul\":481:543   */\ntag_56:\n    /* \"#utility.yul\":429:549   */\n  pop\n  jump\t// out\n    /* \"#utility.yul\":555:696   */\ntag_14:\n    /* \"#utility.yul\":611:616   */\n  0x00\n    /* \"#utility.yul\":642:648   */\n  dup2\n    /* \"#utility.yul\":636:649   */\n  mload\n    /* \"#utility.yul\":627:649   */\n  swap1\n  pop\n    /* \"#utility.yul\":658:690   */\n  tag_58\n    /* \"#utility.yul\":684:689   */\n  dup2\n    /* \"#utility.yul\":658:690   */\n  tag_13\n  jump\t// in\ntag_58:\n    /* \"#utility.yul\":555:696   */\n  swap3\n  swap2\n  pop\n  pop\n  jump\t// out\n    /* \"#utility.yul\":702:819   */\ntag_15:\n    /* \"#utility.yul\":811:812   */\n  0x00\n    /* \"#utility.yul\":808:809   */\n  0x00\n    /* \"#utility.yul\":801:813   */\n  revert\n    /* \"#utility.yul\":825:942   */\ntag_16:\n    /* \"#utility.yul\":934:935   */\n  0x00\n    /* \"#utility.yul\":931:932   */\n  0x00\n    /* \"#utility.yul\":924:936   */\n  revert\n    /* \"#utility.yul\":948:1050   */\ntag_17:\n    /* \"#utility.yul\":989:995   */\n  0x00\n    /* \"#utility.yul\":1040:1042   */\n  0x1f\n    /* \"#utility.yul\":1036:1043   */\n  not\n    /* \"#utility.yul\":1031:1033   */\n  0x1f\n    /* \"#utility.yul\":1024:1029   */\n  dup4\n    /* \"#utility.yul\":1020:1034   */\n  add\n    /* \"#utility.yul\":1016:1044   */\n  and\n    /* \"#utility.yul\":1006:1044   */\n  swap1\n  pop\n    /* \"#utility.yul\":948:1050   */\n  swap2\n  swap1\n  pop\n  jump\t// out\n    /* \"#utility.yul\":1056:1236   */\ntag_18:\n    /* \"#utility.yul\":1104:1181   */\n  0x4e487b7100000000000000000000000000000000000000000000000000000000\n    /* \"#utility.yul\":1101:1102   */\n  0x00\n    /* \"#utility.yul\":1094:1182   */\n  mstore\n    /* \"#utility.yul\":1201:1205   */\n  0x41\n    /* \"#utility.yul\":1198:1199   */\n  0x04\n    /* \"#utility.yul\":1191:1206   */\n  mstore\n    /* \"#utility.yul\":1225:1229   */\n  0x24\n    /* \"#utility.yul\":1222:1223   */\n  0x00\n    /* \"#utility.yul\":1215:1230   */\n  revert\n    /* \"#utility.yul\":1242:1523   */\ntag_19:\n    /* \"#utility.yul\":1325:1352   */\n  tag_64\n    /* \"#utility.yul\":1347:1351   */\n  dup3\n    /* \"#utility.yul\":1325:1352   */\n  tag_17\n  jump\t// in\ntag_64:\n    /* \"#utility.yul\":1317:1323   */\n  dup2\n    /* \"#utility.yul\":1313:1353   */\n  add\n    /* \"#utility.yul\":1455:1461   */\n  dup2\n    /* \"#utility.yul\":1443:1453   */\n  dup2\n    /* \"#utility.yul\":1440:1462   */\n  lt\n    /* \"#utility.yul\":1419:1437   */\n  0xffffffffffffffff\n    /* \"#utility.yul\":1407:1417   */\n  dup3\n    /* \"#utility.yul\":1404:1438   */\n  gt\n    /* \"#utility.yul\":1401:1463   */\n  or\n    /* \"#utility.yul\":1398:1486   */\n  iszero\n  tag_65\n  jumpi\n    /* \"#utility.yul\":1466:1484   */\n  tag_66\n  tag_18\n  jump\t// in\ntag_66:\n    /* \"#utility.yul\":1398:1486   */\ntag_65:\n    /* \"#utility.yul\":1506:1516   */\n  dup1\n    /* \"#utility.yul\":1502:1504   */\n  0x40\n    /* \"#utility.yul\":1495:1517   */\n  mstore\n    /* \"#utility.yul\":1285:1523   */\n  pop\n    /* \"#utility.yul\":1242:1523   */\n  pop\n  pop\n  jump\t// out\n    /* \"#utility.yul\":1529:1658   */\ntag_20:\n    /* \"#utility.yul\":1563:1569   */\n  0x00\n    /* \"#utility.yul\":1590:1610   */\n  tag_68\n  tag_9\n  jump\t// in\ntag_68:\n    /* \"#utility.yul\":1580:1610   */\n  swap1\n  pop\n    /* \"#utility.yul\":1619:1652   */\n  tag_69\n    /* \"#utility.yul\":1647:1651   */\n  dup3\n    /* \"#utility.yul\":1639:1645   */\n  dup3\n    /* \"#utility.yul\":1619:1652   */\n  tag_19\n  jump\t// in\ntag_69:\n    /* \"#utility.yul\":1529:1658   */\n  swap2\n  swap1\n  pop\n  jump\t// out\n    /* \"#utility.yul\":1664:1972   */\ntag_21:\n    /* \"#utility.yul\":1726:1730   */\n  0x00\n    /* \"#utility.yul\":1816:1834   */\n  0xffffffffffffffff\n    /* \"#utility.yul\":1808:1814   */\n  dup3\n    /* \"#utility.yul\":1805:1835   */\n  gt\n    /* \"#utility.yul\":1802:1858   */\n  iszero\n  tag_71\n  jumpi\n    /* \"#utility.yul\":1838:1856   */\n  tag_72\n  tag_18\n  jump\t// in\ntag_72:\n    /* \"#utility.yul\":1802:1858   */\ntag_71:\n    /* \"#utility.yul\":1876:1905   */\n  tag_73\n    /* \"#utility.yul\":1898:1904   */\n  dup3\n    /* \"#utility.yul\":1876:1905   */\n  tag_17\n  jump\t// in\ntag_73:\n    /* \"#utility.yul\":1868:1905   */\n  swap1\n  pop\n    /* \"#utility.yul\":1960:1964   */\n  0x20\n    /* \"#utility.yul\":1954:1958   */\n  dup2\n    /* \"#utility.yul\":1950:1965   */\n  add\n    /* \"#utility.yul\":1942:1965   */\n  swap1\n  pop\n    /* \"#utility.yul\":1664:1972   */\n  swap2\n  swap1\n  pop\n  jump\t// out\n    /* \"#utility.yul\":1978:2117   */\ntag_22:\n    /* \"#utility.yul\":2067:2073   */\n  dup3\n    /* \"#utility.yul\":2062:2065   */\n  dup2\n    /* \"#utility.yul\":2057:2060   */\n  dup4\n    /* \"#utility.yul\":2051:2074   */\n  mcopy\n    /* \"#utility.yul\":2108:2109   */\n  0x00\n    /* \"#utility.yul\":2099:2105   */\n  dup4\n    /* \"#utility.yul\":2094:2097   */\n  dup4\n    /* \"#utility.yul\":2090:2106   */\n  add\n    /* \"#utility.yul\":2083:2110   */\n  mstore\n    /* \"#utility.yul\":1978:2117   */\n  pop\n  pop\n  pop\n  jump\t// out\n    /* \"#utility.yul\":2123:2557   */\ntag_23:\n    /* \"#utility.yul\":2212:2217   */\n  0x00\n    /* \"#utility.yul\":2237:2303   */\n  tag_76\n    /* \"#utility.yul\":2253:2302   */\n  tag_77\n    /* \"#utility.yul\":2295:2301   */\n  dup5\n    /* \"#utility.yul\":2253:2302   */\n  tag_21\n  jump\t// in\ntag_77:\n    /* \"#utility.yul\":2237:2303   */\n  tag_20\n  jump\t// in\ntag_76:\n    /* \"#utility.yul\":2228:2303   */\n  swap1\n  pop\n    /* \"#utility.yul\":2326:2332   */\n  dup3\n    /* \"#utility.yul\":2319:2324   */\n  dup2\n    /* \"#utility.yul\":2312:2333   */\n  mstore\n    /* \"#utility.yul\":2364:2368   */\n  0x20\n    /* \"#utility.yul\":2357:2362   */\n  dup2\n    /* \"#utility.yul\":2353:2369   */\n  add\n    /* \"#utility.yul\":2402:2405   */\n  dup5\n    /* \"#utility.yul\":2393:2399   */\n  dup5\n    /* \"#utility.yul\":2388:2391   */\n  dup5\n    /* \"#utility.yul\":2384:2400   */\n  add\n    /* \"#utility.yul\":2381:2406   */\n  gt\n    /* \"#utility.yul\":2378:2490   */\n  iszero\n  tag_78\n  jumpi\n    /* \"#utility.yul\":2409:2488   */\n  tag_79\n  tag_16\n  jump\t// in\ntag_79:\n    /* \"#utility.yul\":2378:2490   */\ntag_78:\n    /* \"#utility.yul\":2499:2551   */\n  tag_80\n    /* \"#utility.yul\":2544:2550   */\n  dup5\n    /* \"#utility.yul\":2539:2542   */\n  dup3\n    /* \"#utility.yul\":2534:2537   */\n  dup6\n    /* \"#utility.yul\":2499:2551   */\n  tag_22\n  jump\t// in\ntag_80:\n    /* \"#utility.yul\":2218:2557   */\n  pop\n    /* \"#utility.yul\":2123:2557   */\n  swap4\n  swap3\n  pop\n  pop\n  pop\n  jump\t// out\n    /* \"#utility.yul\":2577:2932   */\ntag_24:\n    /* \"#utility.yul\":2644:2649   */\n  0x00\n    /* \"#utility.yul\":2693:2696   */\n  dup3\n    /* \"#utility.yul\":2686:2690   */\n  0x1f\n    /* \"#utility.yul\":2678:2684   */\n  dup4\n    /* \"#utility.yul\":2674:2691   */\n  add\n    /* \"#utility.yul\":2670:2697   */\n  slt\n    /* \"#utility.yul\":2660:2782   */\n  tag_82\n  jumpi\n    /* \"#utility.yul\":2701:2780   */\n  tag_83\n  tag_15\n  jump\t// in\ntag_83:\n    /* \"#utility.yul\":2660:2782   */\ntag_82:\n    /* \"#utility.yul\":2811:2817   */\n  dup2\n    /* \"#utility.yul\":2805:2818   */\n  mload\n    /* \"#utility.yul\":2836:2926   */\n  tag_84\n    /* \"#utility.yul\":2922:2925   */\n  dup5\n    /* \"#utility.yul\":2914:2920   */\n  dup3\n    /* \"#utility.yul\":2907:2911   */\n  0x20\n    /* \"#utility.yul\":2899:2905   */\n  dup7\n    /* \"#utility.yul\":2895:2912   */\n  add\n    /* \"#utility.yul\":2836:2926   */\n  tag_23\n  jump\t// in\ntag_84:\n    /* \"#utility.yul\":2827:2926   */\n  swap2\n  pop\n    /* \"#utility.yul\":2650:2932   */\n  pop\n    /* \"#utility.yul\":2577:2932   */\n  swap3\n  swap2\n  pop\n  pop\n  jump\t// out\n    /* \"#utility.yul\":2938:3029   */\ntag_25:\n    /* \"#utility.yul\":2974:2981   */\n  0x00\n    /* \"#utility.yul\":3014:3022   */\n  0xffffff\n    /* \"#utility.yul\":3007:3012   */\n  dup3\n    /* \"#utility.yul\":3003:3023   */\n  and\n    /* \"#utility.yul\":2992:3023   */\n  swap1\n  pop\n    /* \"#utility.yul\":2938:3029   */\n  swap2\n  swap1\n  pop\n  jump\t// out\n    /* \"#utility.yul\":3035:3155   */\ntag_26:\n    /* \"#utility.yul\":3107:3130   */\n  tag_87\n    /* \"#utility.yul\":3124:3129   */\n  dup2\n    /* \"#utility.yul\":3107:3130   */\n  tag_25\n  jump\t// in\ntag_87:\n    /* \"#utility.yul\":3100:3105   */\n  dup2\n    /* \"#utility.yul\":3097:3131   */\n  eq\n    /* \"#utility.yul\":3087:3149   */\n  tag_88\n  jumpi\n    /* \"#utility.yul\":3145:3146   */\n  0x00\n    /* \"#utility.yul\":3142:3143   */\n  0x00\n    /* \"#utility.yul\":3135:3147   */\n  revert\n    /* \"#utility.yul\":3087:3149   */\ntag_88:\n    /* \"#utility.yul\":3035:3155   */\n  pop\n  jump\t// out\n    /* \"#utility.yul\":3161:3302   */\ntag_27:\n    /* \"#utility.yul\":3217:3222   */\n  0x00\n    /* \"#utility.yul\":3248:3254   */\n  dup2\n    /* \"#utility.yul\":3242:3255   */\n  mload\n    /* \"#utility.yul\":3233:3255   */\n  swap1\n  pop\n    /* \"#utility.yul\":3264:3296   */\n  tag_90\n    /* \"#utility.yul\":3290:3295   */\n  dup2\n    /* \"#utility.yul\":3264:3296   */\n  tag_26\n  jump\t// in\ntag_90:\n    /* \"#utility.yul\":3161:3302   */\n  swap3\n  swap2\n  pop\n  pop\n  jump\t// out\n    /* \"#utility.yul\":3308:3385   */\ntag_28:\n    /* \"#utility.yul\":3345:3352   */\n  0x00\n    /* \"#utility.yul\":3374:3379   */\n  dup2\n    /* \"#utility.yul\":3363:3379   */\n  swap1\n  pop\n    /* \"#utility.yul\":3308:3385   */\n  swap2\n  swap1\n  pop\n  jump\t// out\n    /* \"#utility.yul\":3391:3513   */\ntag_29:\n    /* \"#utility.yul\":3464:3488   */\n  tag_93\n    /* \"#utility.yul\":3482:3487   */\n  dup2\n    /* \"#utility.yul\":3464:3488   */\n  tag_28\n  jump\t// in\ntag_93:\n    /* \"#utility.yul\":3457:3462   */\n  dup2\n    /* \"#utility.yul\":3454:3489   */\n  eq\n    /* \"#utility.yul\":3444:3507   */\n  tag_94\n  jumpi\n    /* \"#utility.yul\":3503:3504   */\n  0x00\n    /* \"#utility.yul\":3500:3501   */\n  0x00\n    /* \"#utility.yul\":3493:3505   */\n  revert\n    /* \"#utility.yul\":3444:3507   */\ntag_94:\n    /* \"#utility.yul\":3391:3513   */\n  pop\n  jump\t// out\n    /* \"#utility.yul\":3519:3662   */\ntag_30:\n    /* \"#utility.yul\":3576:3581   */\n  0x00\n    /* \"#utility.yul\":3607:3613   */\n  dup2\n    /* \"#utility.yul\":3601:3614   */\n  mload\n    /* \"#utility.yul\":3592:3614   */\n  swap1\n  pop\n    /* \"#utility.yul\":3623:3656   */\n  tag_96\n    /* \"#utility.yul\":3650:3655   */\n  dup2\n    /* \"#utility.yul\":3623:3656   */\n  tag_29\n  jump\t// in\ntag_96:\n    /* \"#utility.yul\":3519:3662   */\n  swap3\n  swap2\n  pop\n  pop\n  jump\t// out\n    /* \"#utility.yul\":3668:4657   */\ntag_3:\n    /* \"#utility.yul\":3773:3779   */\n  0x00\n    /* \"#utility.yul\":3781:3787   */\n  0x00\n    /* \"#utility.yul\":3789:3795   */\n  0x00\n    /* \"#utility.yul\":3797:3803   */\n  0x00\n    /* \"#utility.yul\":3846:3849   */\n  0x80\n    /* \"#utility.yul\":3834:3843   */\n  dup6\n    /* \"#utility.yul\":3825:3832   */\n  dup8\n    /* \"#utility.yul\":3821:3844   */\n  sub\n    /* \"#utility.yul\":3817:3850   */\n  slt\n    /* \"#utility.yul\":3814:3934   */\n  iszero\n  tag_98\n  jumpi\n    /* \"#utility.yul\":3853:3932   */\n  tag_99\n  tag_10\n  jump\t// in\ntag_99:\n    /* \"#utility.yul\":3814:3934   */\ntag_98:\n    /* \"#utility.yul\":3973:3974   */\n  0x00\n    /* \"#utility.yul\":3998:4061   */\n  tag_100\n    /* \"#utility.yul\":4053:4060   */\n  dup8\n    /* \"#utility.yul\":4044:4050   */\n  dup3\n    /* \"#utility.yul\":4033:4042   */\n  dup9\n    /* \"#utility.yul\":4029:4051   */\n  add\n    /* \"#utility.yul\":3998:4061   */\n  tag_14\n  jump\t// in\ntag_100:\n    /* \"#utility.yul\":3988:4061   */\n  swap5\n  pop\n    /* \"#utility.yul\":3944:4071   */\n  pop\n    /* \"#utility.yul\":4131:4133   */\n  0x20\n    /* \"#utility.yul\":4120:4129   */\n  dup6\n    /* \"#utility.yul\":4116:4134   */\n  add\n    /* \"#utility.yul\":4110:4135   */\n  mload\n    /* \"#utility.yul\":4162:4180   */\n  0xffffffffffffffff\n    /* \"#utility.yul\":4154:4160   */\n  dup2\n    /* \"#utility.yul\":4151:4181   */\n  gt\n    /* \"#utility.yul\":4148:4265   */\n  iszero\n  tag_101\n  jumpi\n    /* \"#utility.yul\":4184:4263   */\n  tag_102\n  tag_11\n  jump\t// in\ntag_102:\n    /* \"#utility.yul\":4148:4265   */\ntag_101:\n    /* \"#utility.yul\":4289:4363   */\n  tag_103\n    /* \"#utility.yul\":4355:4362   */\n  dup8\n    /* \"#utility.yul\":4346:4352   */\n  dup3\n    /* \"#utility.yul\":4335:4344   */\n  dup9\n    /* \"#utility.yul\":4331:4353   */\n  add\n    /* \"#utility.yul\":4289:4363   */\n  tag_24\n  jump\t// in\ntag_103:\n    /* \"#utility.yul\":4279:4363   */\n  swap4\n  pop\n    /* \"#utility.yul\":4081:4373   */\n  pop\n    /* \"#utility.yul\":4412:4414   */\n  0x40\n    /* \"#utility.yul\":4438:4501   */\n  tag_104\n    /* \"#utility.yul\":4493:4500   */\n  dup8\n    /* \"#utility.yul\":4484:4490   */\n  dup3\n    /* \"#utility.yul\":4473:4482   */\n  dup9\n    /* \"#utility.yul\":4469:4491   */\n  add\n    /* \"#utility.yul\":4438:4501   */\n  tag_27\n  jump\t// in\ntag_104:\n    /* \"#utility.yul\":4428:4501   */\n  swap3\n  pop\n    /* \"#utility.yul\":4383:4511   */\n  pop\n    /* \"#utility.yul\":4550:4552   */\n  0x60\n    /* \"#utility.yul\":4576:4640   */\n  tag_105\n    /* \"#utility.yul\":4632:4639   */\n  dup8\n    /* \"#utility.yul\":4623:4629   */\n  dup3\n    /* \"#utility.yul\":4612:4621   */\n  dup9\n    /* \"#utility.yul\":4608:4630   */\n  add\n    /* \"#utility.yul\":4576:4640   */\n  tag_30\n  jump\t// in\ntag_105:\n    /* \"#utility.yul\":4566:4640   */\n  swap2\n  pop\n    /* \"#utility.yul\":4521:4650   */\n  pop\n    /* \"#utility.yul\":3668:4657   */\n  swap3\n  swap6\n  swap2\n  swap5\n  pop\n  swap3\n  pop\n  jump\t// out\n    /* \"#utility.yul\":4663:4762   */\ntag_31:\n    /* \"#utility.yul\":4715:4721   */\n  0x00\n    /* \"#utility.yul\":4749:4754   */\n  dup2\n    /* \"#utility.yul\":4743:4755   */\n  mload\n    /* \"#utility.yul\":4733:4755   */\n  swap1\n  pop\n    /* \"#utility.yul\":4663:4762   */\n  swap2\n  swap1\n  pop\n  jump\t// out\n    /* \"#utility.yul\":4768:4948   */\ntag_32:\n    /* \"#utility.yul\":4816:4893   */\n  0x4e487b7100000000000000000000000000000000000000000000000000000000\n    /* \"#utility.yul\":4813:4814   */\n  0x00\n    /* \"#utility.yul\":4806:4894   */\n  mstore\n    /* \"#utility.yul\":4913:4917   */\n  0x22\n    /* \"#utility.yul\":4910:4911   */\n  0x04\n    /* \"#utility.yul\":4903:4918   */\n  mstore\n    /* \"#utility.yul\":4937:4941   */\n  0x24\n    /* \"#utility.yul\":4934:4935   */\n  0x00\n    /* \"#utility.yul\":4927:4942   */\n  revert\n    /* \"#utility.yul\":4954:5274   */\ntag_33:\n    /* \"#utility.yul\":4998:5004   */\n  0x00\n    /* \"#utility.yul\":5035:5036   */\n  0x02\n    /* \"#utility.yul\":5029:5033   */\n  dup3\n    /* \"#utility.yul\":5025:5037   */\n  div\n    /* \"#utility.yul\":5015:5037   */\n  swap1\n  pop\n    /* \"#utility.yul\":5082:5083   */\n  0x01\n    /* \"#utility.yul\":5076:5080   */\n  dup3\n    /* \"#utility.yul\":5072:5084   */\n  and\n    /* \"#utility.yul\":5103:5121   */\n  dup1\n    /* \"#utility.yul\":5093:5174   */\n  tag_109\n  jumpi\n    /* \"#utility.yul\":5159:5163   */\n  0x7f\n    /* \"#utility.yul\":5151:5157   */\n  dup3\n    /* \"#utility.yul\":5147:5164   */\n  and\n    /* \"#utility.yul\":5137:5164   */\n  swap2\n  pop\n    /* \"#utility.yul\":5093:5174   */\ntag_109:\n    /* \"#utility.yul\":5221:5223   */\n  0x20\n    /* \"#utility.yul\":5213:5219   */\n  dup3\n    /* \"#utility.yul\":5210:5224   */\n  lt\n    /* \"#utility.yul\":5190:5208   */\n  dup2\n    /* \"#utility.yul\":5187:5225   */\n  sub\n    /* \"#utility.yul\":5184:5268   */\n  tag_110\n  jumpi\n    /* \"#utility.yul\":5240:5258   */\n  tag_111\n  tag_32\n  jump\t// in\ntag_111:\n    /* \"#utility.yul\":5184:5268   */\ntag_110:\n    /* \"#utility.yul\":5005:5274   */\n  pop\n    /* \"#utility.yul\":4954:5274   */\n  swap2\n  swap1\n  pop\n  jump\t// out\n    /* \"#utility.yul\":5280:5421   */\ntag_34:\n    /* \"#utility.yul\":5329:5333   */\n  0x00\n    /* \"#utility.yul\":5352:5355   */\n  dup2\n    /* \"#utility.yul\":5344:5355   */\n  swap1\n  pop\n    /* \"#utility.yul\":5375:5378   */\n  dup2\n    /* \"#utility.yul\":5372:5373   */\n  0x00\n    /* \"#utility.yul\":5365:5379   */\n  mstore\n    /* \"#utility.yul\":5409:5413   */\n  0x20\n    /* \"#utility.yul\":5406:5407   */\n  0x00\n    /* \"#utility.yul\":5396:5414   */\n  keccak256\n    /* \"#utility.yul\":5388:5414   */\n  swap1\n  pop\n    /* \"#utility.yul\":5280:5421   */\n  swap2\n  swap1\n  pop\n  jump\t// out\n    /* \"#utility.yul\":5427:5520   */\ntag_35:\n    /* \"#utility.yul\":5464:5470   */\n  0x00\n    /* \"#utility.yul\":5511:5513   */\n  0x20\n    /* \"#utility.yul\":5506:5508   */\n  0x1f\n    /* \"#utility.yul\":5499:5504   */\n  dup4\n    /* \"#utility.yul\":5495:5509   */\n  add\n    /* \"#utility.yul\":5491:5514   */\n  div\n    /* \"#utility.yul\":5481:5514   */\n  swap1\n  pop\n    /* \"#utility.yul\":5427:5520   */\n  swap2\n  swap1\n  pop\n  jump\t// out\n    /* \"#utility.yul\":5526:5633   */\ntag_36:\n    /* \"#utility.yul\":5570:5578   */\n  0x00\n    /* \"#utility.yul\":5620:5625   */\n  dup3\n    /* \"#utility.yul\":5614:5618   */\n  dup3\n    /* \"#utility.yul\":5610:5626   */\n  shl\n    /* \"#utility.yul\":5589:5626   */\n  swap1\n  pop\n    /* \"#utility.yul\":5526:5633   */\n  swap3\n  swap2\n  pop\n  pop\n  jump\t// out\n    /* \"#utility.yul\":5639:6032   */\ntag_37:\n    /* \"#utility.yul\":5708:5714   */\n  0x00\n    /* \"#utility.yul\":5758:5759   */\n  0x08\n    /* \"#utility.yul\":5746:5756   */\n  dup4\n    /* \"#utility.yul\":5742:5760   */\n  mul\n    /* \"#utility.yul\":5781:5878   */\n  tag_116\n    /* \"#utility.yul\":5811:5877   */\n  0xffffffffffffffffffffffffffffffffffffffffffffffffffffffffffffffff\n    /* \"#utility.yul\":5800:5809   */\n  dup3\n    /* \"#utility.yul\":5781:5878   */\n  tag_36\n  jump\t// in\ntag_116:\n    /* \"#utility.yul\":5899:5938   */\n  tag_117\n    /* \"#utility.yul\":5929:5937   */\n  dup7\n    /* \"#utility.yul\":5918:5927   */\n  dup4\n    /* \"#utility.yul\":5899:5938   */\n  tag_36\n  jump\t// in\ntag_117:\n    /* \"#utility.yul\":5887:5938   */\n  swap6\n  pop\n    /* \"#utility.yul\":5971:5975   */\n  dup1\n    /* \"#utility.yul\":5967:5976   */\n  not\n    /* \"#utility.yul\":5960:5965   */\n  dup5\n    /* \"#utility.yul\":5956:5977   */\n  and\n    /* \"#utility.yul\":5947:5977   */\n  swap4\n  pop\n    /* \"#utility.yul\":6020:6024   */\n  dup1\n    /* \"#utility.yul\":6010:6018   */\n  dup7\n    /* \"#utility.yul\":6006:6025   */\n  and\n    /* \"#utility.yul\":5999:6004   */\n  dup5\n    /* \"#utility.yul\":5996:6026   */\n  or\n    /* \"#utility.yul\":5986:6026   */\n  swap3\n  pop\n    /* \"#utility.yul\":5715:6032   */\n  pop\n  pop\n    /* \"#utility.yul\":5639:6032   */\n  swap4\n  swap3\n  pop\n  pop\n  pop\n  jump\t// out\n    /* \"#utility.yul\":6038:6098   */\ntag_38:\n    /* \"#utility.yul\":6066:6069   */\n  0x00\n    /* \"#utility.yul\":6087:6092   */\n  dup2\n    /* \"#utility.yul\":6080:6092   */\n  swap1\n  pop\n    /* \"#utility.yul\":6038:6098   */\n  swap2\n  swap1\n  pop\n  jump\t// out\n    /* \"#utility.yul\":6104:6246   */\ntag_39:\n    /* \"#utility.yul\":6154:6163   */\n  0x00\n    /* \"#utility.yul\":6187:6240   */\n  tag_120\n    /* \"#utility.yul\":6205:6239   */\n  tag_121\n    /* \"#utility.yul\":6214:6238   */\n  tag_122\n    /* \"#utility.yul\":6232:6237   */\n  dup5\n    /* \"#utility.yul\":6214:6238   */\n  tag_28\n  jump\t// in\ntag_122:\n    /* \"#utility.yul\":6205:6239   */\n  tag_38\n  jump\t// in\ntag_121:\n    /* \"#utility.yul\":6187:6240   */\n  tag_28\n  jump\t// in\ntag_120:\n    /* \"#utility.yul\":6174:6240   */\n  swap1\n  pop\n    /* \"#utility.yul\":6104:6246   */\n  swap2\n  swap1\n  pop\n  jump\t// out\n    /* \"#utility.yul\":6252:6327   */\ntag_40:\n    /* \"#utility.yul\":6295:6298   */\n  0x00\n    /* \"#utility.yul\":6316:6321   */\n  dup2\n    /* \"#utility.yul\":6309:6321   */\n  swap1\n  pop\n    /* \"#utility.yul\":6252:6327   */\n  swap2\n  swap1\n  pop\n  jump\t// out\n    /* \"#utility.yul\":6333:6602   */\ntag_41:\n    /* \"#utility.yul\":6443:6482   */\n  tag_125\n    /* \"#utility.yul\":6474:6481   */\n  dup4\n    /* \"#utility.yul\":6443:6482   */\n  tag_39\n  jump\t// in\ntag_125:\n    /* \"#utility.yul\":6504:6595   */\n  tag_126\n    /* \"#utility.yul\":6553:6594   */\n  tag_127\n    /* \"#utility.yul\":6577:6593   */\n  dup3\n    /* \"#utility.yul\":6553:6594   */\n  tag_40\n  jump\t// in\ntag_127:\n    /* \"#utility.yul\":6545:6551   */\n  dup5\n    /* \"#utility.yul\":6538:6542   */\n  dup5\n    /* \"#utility.yul\":6532:6543   */\n  sload\n    /* \"#utility.yul\":6504:6595   */\n  tag_37\n  jump\t// in\ntag_126:\n    /* \"#utility.yul\":6498:6502   */\n  dup3\n    /* \"#utility.yul\":6491:6596   */\n  sstore\n    /* \"#utility.yul\":6409:6602   */\n  pop\n    /* \"#utility.yul\":6333:6602   */\n  pop\n  pop\n  pop\n  jump\t// out\n    /* \"#utility.yul\":6608:6681   */\ntag_42:\n    /* \"#utility.yul\":6653:6656   */\n  0x00\n    /* \"#utility.yul\":6674:6675   */\n  0x00\n    /* \"#utility.yul\":6667:6675   */\n  swap1\n  pop\n    /* \"#utility.yul\":6608:6681   */\n  swap1\n  jump\t// out\n    /* \"#utility.yul\":6687:6876   */\ntag_43:\n    /* \"#utility.yul\":6764:6796   */\n  tag_130\n  tag_42\n  jump\t// in\ntag_130:\n    /* \"#utility.yul\":6805:6870   */\n  tag_131\n    /* \"#utility.yul\":6863:6869   */\n  dup2\n    /* \"#utility.yul\":6855:6861   */\n  dup5\n    /* \"#utility.yul\":6849:6853   */\n  dup5\n    /* \"#utility.yul\":6805:6870   */\n  tag_41\n  jump\t// in\ntag_131:\n    /* \"#utility.yul\":6740:6876   */\n  pop\n    /* \"#utility.yul\":6687:6876   */\n  pop\n  pop\n  jump\t// out\n    /* \"#utility.yul\":6882:7068   */\ntag_44:\n    /* \"#utility.yul\":6942:7062   */\ntag_133:\n    /* \"#utility.yul\":6959:6962   */\n  dup2\n    /* \"#utility.yul\":6952:6957   */\n  dup2\n    /* \"#utility.yul\":6949:6963   */\n  lt\n    /* \"#utility.yul\":6942:7062   */\n  iszero\n  tag_135\n  jumpi\n    /* \"#utility.yul\":7013:7052   */\n  tag_136\n    /* \"#utility.yul\":7050:7051   */\n  0x00\n    /* \"#utility.yul\":7043:7048   */\n  dup3\n    /* \"#utility.yul\":7013:7052   */\n  tag_43\n  jump\t// in\ntag_136:\n    /* \"#utility.yul\":6986:6987   */\n  0x01\n    /* \"#utility.yul\":6979:6984   */\n  dup2\n    /* \"#utility.yul\":6975:6988   */\n  add\n    /* \"#utility.yul\":6966:6988   */\n  swap1\n  pop\n    /* \"#utility.yul\":6942:7062   */\n  jump(tag_133)\ntag_135:\n    /* \"#utility.yul\":6882:7068   */\n  pop\n  pop\n  jump\t// out\n    /* \"#utility.yul\":7074:7617   */\ntag_45:\n    /* \"#utility.yul\":7175:7177   */\n  0x1f\n    /* \"#utility.yul\":7170:7173   */\n  dup3\n    /* \"#utility.yul\":7167:7178   */\n  gt\n    /* \"#utility.yul\":7164:7610   */\n  iszero\n  tag_138\n  jumpi\n    /* \"#utility.yul\":7209:7247   */\n  tag_139\n    /* \"#utility.yul\":7241:7246   */\n  dup2\n    /* \"#utility.yul\":7209:7247   */\n  tag_34\n  jump\t// in\ntag_139:\n    /* \"#utility.yul\":7293:7322   */\n  tag_140\n    /* \"#utility.yul\":7311:7321   */\n  dup5\n    /* \"#utility.yul\":7293:7322   */\n  tag_35\n  jump\t// in\ntag_140:\n    /* \"#utility.yul\":7283:7291   */\n  dup2\n    /* \"#utility.yul\":7279:7323   */\n  add\n    /* \"#utility.yul\":7476:7478   */\n  0x20\n    /* \"#utility.yul\":7464:7474   */\n  dup6\n    /* \"#utility.yul\":7461:7479   */\n  lt\n    /* \"#utility.yul\":7458:7507   */\n  iszero\n  tag_141\n  jumpi\n    /* \"#utility.yul\":7497:7505   */\n  dup2\n    /* \"#utility.yul\":7482:7505   */\n  swap1\n  pop\n    /* \"#utility.yul\":7458:7507   */\ntag_141:\n    /* \"#utility.yul\":7520:7600   */\n  tag_142\n    /* \"#utility.yul\":7576:7598   */\n  tag_143\n    /* \"#utility.yul\":7594:7597   */\n  dup6\n    /* \"#utility.yul\":7576:7598   */\n  tag_35\n  jump\t// in\ntag_143:\n    /* \"#utility.yul\":7566:7574   */\n  dup4\n    /* \"#utility.yul\":7562:7599   */\n  add\n    /* \"#utility.yul\":7549:7560   */\n  dup3\n    /* \"#utility.yul\":7520:7600   */\n  tag_44\n  jump\t// in\ntag_142:\n    /* \"#utility.yul\":7179:7610   */\n  pop\n  pop\n    /* \"#utility.yul\":7164:7610   */\ntag_138:\n    /* \"#utility.yul\":7074:7617   */\n  pop\n  pop\n  pop\n  jump\t// out\n    /* \"#utility.yul\":7623:7740   */\ntag_46:\n    /* \"#utility.yul\":7677:7685   */\n  0x00\n    /* \"#utility.yul\":7727:7732   */\n  dup3\n    /* \"#utility.yul\":7721:7725   */\n  dup3\n    /* \"#utility.yul\":7717:7733   */\n  shr\n    /* \"#utility.yul\":7696:7733   */\n  swap1\n  pop\n    /* \"#utility.yul\":7623:7740   */\n  swap3\n  swap2\n  pop\n  pop\n  jump\t// out\n    /* \"#utility.yul\":7746:7915   */\ntag_47:\n    /* \"#utility.yul\":7790:7796   */\n  0x00\n    /* \"#utility.yul\":7823:7874   */\n  tag_146\n    /* \"#utility.yul\":7871:7872   */\n  0x00\n    /* \"#utility.yul\":7867:7873   */\n  not\n    /* \"#utility.yul\":7859:7864   */\n  dup5\n    /* \"#utility.yul\":7856:7857   */\n  0x08\n    /* \"#utility.yul\":7852:7865   */\n  mul\n    /* \"#utility.yul\":7823:7874   */\n  tag_46\n  jump\t// in\ntag_146:\n    /* \"#utility.yul\":7819:7875   */\n  not\n    /* \"#utility.yul\":7904:7908   */\n  dup1\n    /* \"#utility.yul\":7898:7902   */\n  dup4\n    /* \"#utility.yul\":7894:7909   */\n  and\n    /* \"#utility.yul\":7884:7909   */\n  swap2\n  pop\n    /* \"#utility.yul\":7797:7915   */\n  pop\n    /* \"#utility.yul\":7746:7915   */\n  swap3\n  swap2\n  pop\n  pop\n  jump\t// out\n    /* \"#utility.yul\":7920:8215   */\ntag_48:\n    /* \"#utility.yul\":7996:8000   */\n  0x00\n    /* \"#utility.yul\":8142:8171   */\n  tag_148\n    /* \"#utility.yul\":8167:8170   */\n  dup4\n    /* \"#utility.yul\":8161:8165   */\n  dup4\n    /* \"#utility.yul\":8142:8171   */\n  tag_47\n  jump\t// in\ntag_148:\n    /* \"#utility.yul\":8134:8171   */\n  swap2\n  pop\n    /* \"#utility.yul\":8204:8207   */\n  dup3\n    /* \"#utility.yul\":8201:8202   */\n  0x02\n    /* \"#utility.yul\":8197:8208   */\n  mul\n    /* \"#utility.yul\":8191:8195   */\n  dup3\n    /* \"#utility.yul\":8188:8209   */\n  or\n    /* \"#utility.yul\":8180:8209   */\n  swap1\n  pop\n    /* \"#utility.yul\":7920:8215   */\n  swap3\n  swap2\n  pop\n  pop\n  jump\t// out\n    /* \"#utility.yul\":8220:9615   */\ntag_7:\n    /* \"#utility.yul\":8337:8374   */\n  tag_150\n    /* \"#utility.yul\":8370:8373   */\n  dup3\n    /* \"#utility.yul\":8337:8374   */\n  tag_31\n  jump\t// in\ntag_150:\n    /* \"#utility.yul\":8439:8457   */\n  0xffffffffffffffff\n    /* \"#utility.yul\":8431:8437   */\n  dup2\n    /* \"#utility.yul\":8428:8458   */\n  gt\n    /* \"#utility.yul\":8425:8481   */\n  iszero\n  tag_151\n  jumpi\n    /* \"#utility.yul\":8461:8479   */\n  tag_152\n  tag_18\n  jump\t// in\ntag_152:\n    /* \"#utility.yul\":8425:8481   */\ntag_151:\n    /* \"#utility.yul\":8505:8543   */\n  tag_153\n    /* \"#utility.yul\":8537:8541   */\n  dup3\n    /* \"#utility.yul\":8531:8542   */\n  sload\n    /* \"#utility.yul\":8505:8543   */\n  tag_33\n  jump\t// in\ntag_153:\n    /* \"#utility.yul\":8590:8657   */\n  tag_154\n    /* \"#utility.yul\":8650:8656   */\n  dup3\n    /* \"#utility.yul\":8642:8648   */\n  dup3\n    /* \"#utility.yul\":8636:8640   */\n  dup6\n    /* \"#utility.yul\":8590:8657   */\n  tag_45\n  jump\t// in\ntag_154:\n    /* \"#utility.yul\":8684:8685   */\n  0x00\n    /* \"#utility.yul\":8708:8712   */\n  0x20\n    /* \"#utility.yul\":8695:8712   */\n  swap1\n  pop\n    /* \"#utility.yul\":8740:8742   */\n  0x1f\n    /* \"#utility.yul\":8732:8738   */\n  dup4\n    /* \"#utility.yul\":8729:8743   */\n  gt\n    /* \"#utility.yul\":8757:8758   */\n  0x01\n    /* \"#utility.yul\":8752:9370   */\n  dup2\n  eq\n  tag_156\n  jumpi\n    /* \"#utility.yul\":9414:9415   */\n  0x00\n    /* \"#utility.yul\":9431:9437   */\n  dup5\n    /* \"#utility.yul\":9428:9505   */\n  iszero\n  tag_157\n  jumpi\n    /* \"#utility.yul\":9480:9489   */\n  dup3\n    /* \"#utility.yul\":9475:9478   */\n  dup8\n    /* \"#utility.yul\":9471:9490   */\n  add\n    /* \"#utility.yul\":9465:9491   */\n  mload\n    /* \"#utility.yul\":9456:9491   */\n  swap1\n  pop\n    /* \"#utility.yul\":9428:9505   */\ntag_157:\n    /* \"#utility.yul\":9531:9598   */\n  tag_158\n    /* \"#utility.yul\":9591:9597   */\n  dup6\n    /* \"#utility.yul\":9584:9589   */\n  dup3\n    /* \"#utility.yul\":9531:9598   */\n  tag_48\n  jump\t// in\ntag_158:\n    /* \"#utility.yul\":9525:9529   */\n  dup7\n    /* \"#utility.yul\":9518:9599   */\n  sstore\n    /* \"#utility.yul\":9387:9609   */\n  pop\n    /* \"#utility.yul\":8722:9609   */\n  jump(tag_155)\n    /* \"#utility.yul\":8752:9370   */\ntag_156:\n    /* \"#utility.yul\":8804:8808   */\n  0x1f\n    /* \"#utility.yul\":8800:8809   */\n  not\n    /* \"#utility.yul\":8792:8798   */\n  dup5\n    /* \"#utility.yul\":8788:8810   */\n  and\n    /* \"#utility.yul\":8838:8875   */\n  tag_159\n    /* \"#utility.yul\":8870:8874   */\n  dup7\n    /* \"#utility.yul\":8838:8875   */\n  tag_34\n  jump\t// in\ntag_159:\n    /* \"#utility.yul\":8897:8898   */\n  0x00\n    /* \"#utility.yul\":8911:9119   */\ntag_160:\n    /* \"#utility.yul\":8925:8932   */\n  dup3\n    /* \"#utility.yul\":8922:8923   */\n  dup2\n    /* \"#utility.yul\":8919:8933   */\n  lt\n    /* \"#utility.yul\":8911:9119   */\n  iszero\n  tag_162\n  jumpi\n    /* \"#utility.yul\":9004:9013   */\n  dup5\n    /* \"#utility.yul\":8999:9002   */\n  dup10\n    /* \"#utility.yul\":8995:9014   */\n  add\n    /* \"#utility.yul\":8989:9015   */\n  mload\n    /* \"#utility.yul\":8981:8987   */\n  dup3\n    /* \"#utility.yul\":8974:9016   */\n  sstore\n    /* \"#utility.yul\":9055:9056   */\n  0x01\n    /* \"#utility.yul\":9047:9053   */\n  dup3\n    /* \"#utility.yul\":9043:9057   */\n  add\n    /* \"#utility.yul\":9033:9057   */\n  swap2\n  pop\n    /* \"#utility.yul\":9102:9104   */\n  0x20\n    /* \"#utility.yul\":9091:9100   */\n  dup6\n    /* \"#utility.yul\":9087:9105   */\n  add\n    /* \"#utility.yul\":9074:9105   */\n  swap5\n  pop\n    /* \"#utility.yul\":8948:8952   */\n  0x20\n    /* \"#utility.yul\":8945:8946   */\n  dup2\n    /* \"#utility.yul\":8941:8953   */\n  add\n    /* \"#utility.yul\":8936:8953   */\n  swap1\n  pop\n    /* \"#utility.yul\":8911:9119   */\n  jump(tag_160)\ntag_162:\n    /* \"#utility.yul\":9147:9153   */\n  dup7\n    /* \"#utility.yul\":9138:9145   */\n  dup4\n    /* \"#utility.yul\":9135:9154   */\n  lt\n    /* \"#utility.yul\":9132:9311   */\n  iszero\n  tag_163\n  jumpi\n    /* \"#utility.yul\":9205:9214   */\n  dup5\n    /* \"#utility.yul\":9200:9203   */\n  dup10\n    /* \"#utility.yul\":9196:9215   */\n  add\n    /* \"#utility.yul\":9190:9216   */\n  mload\n    /* \"#utility.yul\":9248:9296   */\n  tag_164\n    /* \"#utility.yul\":9290:9294   */\n  0x1f\n    /* \"#utility.yul\":9282:9288   */\n  dup10\n    /* \"#utility.yul\":9278:9295   */\n  and\n    /* \"#utility.yul\":9267:9276   */\n  dup3\n    /* \"#utility.yul\":9248:9296   */\n  tag_47\n  jump\t// in\ntag_164:\n    /* \"#utility.yul\":9240:9246   */\n  dup4\n    /* \"#utility.yul\":9233:9297   */\n  sstore\n    /* \"#utility.yul\":9155:9311   */\n  pop\n    /* \"#utility.yul\":9132:9311   */\ntag_163:\n    /* \"#utility.yul\":9357:9358   */\n  0x01\n    /* \"#utility.yul\":9353:9354   */\n  0x02\n    /* \"#utility.yul\":9345:9351   */\n  dup9\n    /* \"#utility.yul\":9341:9355   */\n  mul\n    /* \"#utility.yul\":9337:9359   */\n  add\n    /* \"#utility.yul\":9331:9335   */\n  dup9\n    /* \"#utility.yul\":9324:9360   */\n  sstore\n    /* \"#utility.yul\":8759:9370   */\n  pop\n  pop\n  pop\n    /* \"#utility.yul\":8722:9609   */\ntag_155:\n  pop\n    /* \"#utility.yul\":8312:9615   */\n  pop\n  pop\n  pop\n    /* \"#utility.yul\":8220:9615   */\n  pop\n  pop\n  jump\t// out\n    /* \"contracts/EmployeeStorage.sol\":196:3063  contract EmployeeStorage {... */\ntag_8:\n  dataSize(sub_0)\n  dup1\n  dataOffset(sub_0)\n  0x00\n  codecopy\n  0x00\n  return\nstop\n\nsub_0: assembly {\n        /* \"contracts/EmployeeStorage.sol\":196:3063  contract EmployeeStorage {... */\n      mstore(0x40, 0x80)\n      callvalue\n      dup1\n      iszero\n      tag_1\n      jumpi\n      revert(0x00, 0x00)\n    tag_1:\n      pop\n      jumpi(tag_2, lt(calldatasize, 0x04))\n      shr(0xe0, calldataload(0x00))\n      dup1\n      0x4c764809\n      gt\n      tag_10\n      jumpi\n      dup1\n      0x4c764809\n      eq\n      tag_6\n      jumpi\n      dup1\n      0x52c98689\n      eq\n      tag_7\n      jumpi\n      dup1\n      0x6d45e2a5\n      eq\n      tag_8\n      jumpi\n      dup1\n      0x8f6a861a\n      eq\n      tag_9\n      jumpi\n      jump(tag_2)\n    tag_10:\n      dup1\n      0x06fdde03\n      eq\n      tag_3\n      jumpi\n      dup1\n      0x3f83ea3b\n      eq\n      tag_4\n      jumpi\n      dup1\n      0x49574402\n      eq\n      tag_5\n      jumpi\n    tag_2:\n      revert(0x00, 0x00)\n        /* \"contracts/EmployeeStorage.sol\":1114:1132  string public name */\n    tag_3:\n      tag_11\n      tag_12\n      jump\t// in\n    tag_11:\n      mload(0x40)\n      tag_13\n      swap2\n      swap1\n      tag_14\n      jump\t// in\n    tag_13:\n      mload(0x40)\n      dup1\n      swap2\n      sub\n      swap1\n      return\n        /* \"contracts/EmployeeStorage.sol\":1088:1108  uint public idNumber */\n    tag_4:\n      tag_15\n      tag_16\n      jump\t// in\n    tag_15:\n      mload(0x40)\n      tag_17\n      swap2\n      swap1\n      tag_18\n      jump\t// in\n    tag_17:\n      mload(0x40)\n      dup1\n      swap2\n      sub\n      swap1\n      return\n        /* \"contracts/EmployeeStorage.sol\":1338:1419  function viewSalary() public view returns (uint24) {... */\n    tag_5:\n      tag_19\n      tag_20\n      jump\t// in\n    tag_19:\n      mload(0x40)\n      tag_21\n      swap2\n      swap1\n      tag_22\n      jump\t// in\n    tag_21:\n      mload(0x40)\n      dup1\n      swap2\n      sub\n      swap1\n      return\n        /* \"contracts/EmployeeStorage.sol\":2996:3061  function debugResetShares() public {... */\n    tag_6:\n      tag_23\n      tag_24\n      jump\t// in\n    tag_23:\n      stop\n        /* \"contracts/EmployeeStorage.sol\":2022:2323  function grantShares(uint16 _newShares) public {... */\n    tag_7:\n      tag_25\n      0x04\n      dup1\n      calldatasize\n      sub\n      dup2\n      add\n      swap1\n      tag_26\n      swap2\n      swap1\n      tag_27\n      jump\t// in\n    tag_26:\n      tag_28\n      jump\t// in\n    tag_25:\n      stop\n        /* \"contracts/EmployeeStorage.sol\":1425:1506  function viewShares() public view returns (uint16) {... */\n    tag_8:\n      tag_29\n      tag_30\n      jump\t// in\n    tag_29:\n      mload(0x40)\n      tag_31\n      swap2\n      swap1\n      tag_32\n      jump\t// in\n    tag_31:\n      mload(0x40)\n      dup1\n      swap2\n      sub\n      swap1\n      return\n        /* \"contracts/EmployeeStorage.sol\":2785:2918  function checkForPacking(uint _slot) public view returns (uint r) {... */\n    tag_9:\n      tag_33\n      0x04\n      dup1\n      calldatasize\n      sub\n      dup2\n      add\n      swap1\n      tag_34\n      swap2\n      swap1\n      tag_35\n      jump\t// in\n    tag_34:\n      tag_36\n      jump\t// in\n    tag_33:\n      mload(0x40)\n      tag_37\n      swap2\n      swap1\n      tag_18\n      jump\t// in\n    tag_37:\n      mload(0x40)\n      dup1\n      swap2\n      sub\n      swap1\n      return\n        /* \"contracts/EmployeeStorage.sol\":1114:1132  string public name */\n    tag_12:\n      0x02\n      dup1\n      sload\n      tag_38\n      swap1\n      tag_39\n      jump\t// in\n    tag_38:\n      dup1\n      0x1f\n      add\n      0x20\n      dup1\n      swap2\n      div\n      mul\n      0x20\n      add\n      mload(0x40)\n      swap1\n      dup2\n      add\n      0x40\n      mstore\n      dup1\n      swap3\n      swap2\n      swap1\n      dup2\n      dup2\n      mstore\n      0x20\n      add\n      dup3\n      dup1\n      sload\n      tag_40\n      swap1\n      tag_39\n      jump\t// in\n    tag_40:\n      dup1\n      iszero\n      tag_41\n      jumpi\n      dup1\n      0x1f\n      lt\n      tag_42\n      jumpi\n      0x0100\n      dup1\n      dup4\n      sload\n      div\n      mul\n      dup4\n      mstore\n      swap2\n      0x20\n      add\n      swap2\n      jump(tag_41)\n    tag_42:\n      dup3\n      add\n      swap2\n      swap1\n      0x00\n      mstore\n      keccak256(0x00, 0x20)\n      swap1\n    tag_43:\n      dup2\n      sload\n      dup2\n      mstore\n      swap1\n      0x01\n      add\n      swap1\n      0x20\n      add\n      dup1\n      dup4\n      gt\n      tag_43\n      jumpi\n      dup3\n      swap1\n      sub\n      0x1f\n      and\n      dup3\n      add\n      swap2\n    tag_41:\n      pop\n      pop\n      pop\n      pop\n      pop\n      dup2\n      jump\t// out\n        /* \"contracts/EmployeeStorage.sol\":1088:1108  uint public idNumber */\n    tag_16:\n      sload(0x01)\n      dup2\n      jump\t// out\n        /* \"contracts/EmployeeStorage.sol\":1338:1419  function viewSalary() public view returns (uint24) {... */\n    tag_20:\n        /* \"contracts/EmployeeStorage.sol\":1381:1387  uint24 */\n      0x00\n        /* \"contracts/EmployeeStorage.sol\":1406:1412  salary */\n      0x00\n      0x02\n      swap1\n      sload\n      swap1\n      0x0100\n      exp\n      swap1\n      div\n      0xffffff\n      and\n        /* \"contracts/EmployeeStorage.sol\":1399:1412  return salary */\n      swap1\n      pop\n        /* \"contracts/EmployeeStorage.sol\":1338:1419  function viewSalary() public view returns (uint24) {... */\n      swap1\n      jump\t// out\n        /* \"contracts/EmployeeStorage.sol\":2996:3061  function debugResetShares() public {... */\n    tag_24:\n        /* \"contracts/EmployeeStorage.sol\":3050:3054  1000 */\n      0x03e8\n        /* \"contracts/EmployeeStorage.sol\":3041:3047  shares */\n      0x00\n      0x00\n        /* \"contracts/EmployeeStorage.sol\":3041:3054  shares = 1000 */\n      0x0100\n      exp\n      dup2\n      sload\n      dup2\n      0xffff\n      mul\n      not\n      and\n      swap1\n      dup4\n      0xffff\n      and\n      mul\n      or\n      swap1\n      sstore\n      pop\n        /* \"contracts/EmployeeStorage.sol\":2996:3061  function debugResetShares() public {... */\n      jump\t// out\n        /* \"contracts/EmployeeStorage.sol\":2022:2323  function grantShares(uint16 _newShares) public {... */\n    tag_28:\n        /* \"contracts/EmployeeStorage.sol\":2096:2100  5000 */\n      0x1388\n        /* \"contracts/EmployeeStorage.sol\":2083:2093  _newShares */\n      dup2\n        /* \"contracts/EmployeeStorage.sol\":2083:2100  _newShares > 5000 */\n      0xffff\n      and\n      gt\n        /* \"contracts/EmployeeStorage.sol\":2079:2152  if (_newShares > 5000) {... */\n      iszero\n      tag_47\n      jumpi\n        /* \"contracts/EmployeeStorage.sol\":2116:2141  revert(\"Too many shares\") */\n      mload(0x40)\n      0x08c379a000000000000000000000000000000000000000000000000000000000\n      dup2\n      mstore\n      0x04\n      add\n      tag_48\n      swap1\n      tag_49\n      jump\t// in\n    tag_48:\n      mload(0x40)\n      dup1\n      swap2\n      sub\n      swap1\n      revert\n        /* \"contracts/EmployeeStorage.sol\":2079:2152  if (_newShares > 5000) {... */\n    tag_47:\n        /* \"contracts/EmployeeStorage.sol\":2161:2174  uint newTotal */\n      0x00\n        /* \"contracts/EmployeeStorage.sol\":2186:2196  _newShares */\n      dup2\n        /* \"contracts/EmployeeStorage.sol\":2177:2183  shares */\n      0x00\n      0x00\n      swap1\n      sload\n      swap1\n      0x0100\n      exp\n      swap1\n      div\n      0xffff\n      and\n        /* \"contracts/EmployeeStorage.sol\":2177:2196  shares + _newShares */\n      tag_50\n      swap2\n      swap1\n      tag_51\n      jump\t// in\n    tag_50:\n        /* \"contracts/EmployeeStorage.sol\":2161:2196  uint newTotal = shares + _newShares */\n      0xffff\n      and\n      swap1\n      pop\n        /* \"contracts/EmployeeStorage.sol\":2221:2225  5000 */\n      0x1388\n        /* \"contracts/EmployeeStorage.sol\":2210:2218  newTotal */\n      dup2\n        /* \"contracts/EmployeeStorage.sol\":2210:2225  newTotal > 5000 */\n      gt\n        /* \"contracts/EmployeeStorage.sol\":2206:2282  if (newTotal > 5000) {... */\n      iszero\n      tag_52\n      jumpi\n        /* \"contracts/EmployeeStorage.sol\":2262:2270  newTotal */\n      dup1\n        /* \"contracts/EmployeeStorage.sol\":2248:2271  TooManyShares(newTotal) */\n      mload(0x40)\n      0x0f7d410900000000000000000000000000000000000000000000000000000000\n      dup2\n      mstore\n      0x04\n      add\n      tag_53\n      swap2\n      swap1\n      tag_18\n      jump\t// in\n    tag_53:\n      mload(0x40)\n      dup1\n      swap2\n      sub\n      swap1\n      revert\n        /* \"contracts/EmployeeStorage.sol\":2206:2282  if (newTotal > 5000) {... */\n    tag_52:\n        /* \"contracts/EmployeeStorage.sol\":2307:2315  newTotal */\n      dup1\n        /* \"contracts/EmployeeStorage.sol\":2291:2297  shares */\n      0x00\n      0x00\n        /* \"contracts/EmployeeStorage.sol\":2291:2316  shares = uint16(newTotal) */\n      0x0100\n      exp\n      dup2\n      sload\n      dup2\n      0xffff\n      mul\n      not\n      and\n      swap1\n      dup4\n      0xffff\n      and\n      mul\n      or\n      swap1\n      sstore\n      pop\n        /* \"contracts/EmployeeStorage.sol\":2069:2323  {... */\n      pop\n        /* \"contracts/EmployeeStorage.sol\":2022:2323  function grantShares(uint16 _newShares) public {... */\n      pop\n      jump\t// out\n        /* \"contracts/EmployeeStorage.sol\":1425:1506  function viewShares() public view returns (uint16) {... */\n    tag_30:\n        /* \"contracts/EmployeeStorage.sol\":1468:1474  uint16 */\n      0x00\n        /* \"contracts/EmployeeStorage.sol\":1493:1499  shares */\n      0x00\n      0x00\n      swap1\n      sload\n      swap1\n      0x0100\n      exp\n      swap1\n      div\n      0xffff\n      and\n        /* \"contracts/EmployeeStorage.sol\":1486:1499  return shares */\n      swap1\n      pop\n        /* \"contracts/EmployeeStorage.sol\":1425:1506  function viewShares() public view returns (uint16) {... */\n      swap1\n      jump\t// out\n        /* \"contracts/EmployeeStorage.sol\":2785:2918  function checkForPacking(uint _slot) public view returns (uint r) {... */\n    tag_36:\n        /* \"contracts/EmployeeStorage.sol\":2843:2849  uint r */\n      0x00\n        /* \"contracts/EmployeeStorage.sol\":2896:2901  _slot */\n      dup2\n        /* \"contracts/EmployeeStorage.sol\":2889:2902  sload (_slot) */\n      sload\n        /* \"contracts/EmployeeStorage.sol\":2884:2902  r := sload (_slot) */\n      swap1\n      pop\n        /* \"contracts/EmployeeStorage.sol\":2785:2918  function checkForPacking(uint _slot) public view returns (uint r) {... */\n      swap2\n      swap1\n      pop\n      jump\t// out\n        /* \"#utility.yul\":7:106   */\n    tag_56:\n        /* \"#utility.yul\":59:65   */\n      0x00\n        /* \"#utility.yul\":93:98   */\n      dup2\n        /* \"#utility.yul\":87:99   */\n      mload\n        /* \"#utility.yul\":77:99   */\n      swap1\n      pop\n        /* \"#utility.yul\":7:106   */\n      swap2\n      swap1\n      pop\n      jump\t// out\n        /* \"#utility.yul\":112:281   */\n    tag_57:\n        /* \"#utility.yul\":196:207   */\n      0x00\n        /* \"#utility.yul\":230:236   */\n      dup3\n        /* \"#utility.yul\":225:228   */\n      dup3\n        /* \"#utility.yul\":218:237   */\n      mstore\n        /* \"#utility.yul\":270:274   */\n      0x20\n        /* \"#utility.yul\":265:268   */\n      dup3\n        /* \"#utility.yul\":261:275   */\n      add\n        /* \"#utility.yul\":246:275   */\n      swap1\n      pop\n        /* \"#utility.yul\":112:281   */\n      swap3\n      swap2\n      pop\n      pop\n      jump\t// out\n        /* \"#utility.yul\":287:426   */\n    tag_58:\n        /* \"#utility.yul\":376:382   */\n      dup3\n        /* \"#utility.yul\":371:374   */\n      dup2\n        /* \"#utility.yul\":366:369   */\n      dup4\n        /* \"#utility.yul\":360:383   */\n      mcopy\n        /* \"#utility.yul\":417:418   */\n      0x00\n        /* \"#utility.yul\":408:414   */\n      dup4\n        /* \"#utility.yul\":403:406   */\n      dup4\n        /* \"#utility.yul\":399:415   */\n      add\n        /* \"#utility.yul\":392:419   */\n      mstore\n        /* \"#utility.yul\":287:426   */\n      pop\n      pop\n      pop\n      jump\t// out\n        /* \"#utility.yul\":432:534   */\n    tag_59:\n        /* \"#utility.yul\":473:479   */\n      0x00\n        /* \"#utility.yul\":524:526   */\n      0x1f\n        /* \"#utility.yul\":520:527   */\n      not\n        /* \"#utility.yul\":515:517   */\n      0x1f\n        /* \"#utility.yul\":508:513   */\n      dup4\n        /* \"#utility.yul\":504:518   */\n      add\n        /* \"#utility.yul\":500:528   */\n      and\n        /* \"#utility.yul\":490:528   */\n      swap1\n      pop\n        /* \"#utility.yul\":432:534   */\n      swap2\n      swap1\n      pop\n      jump\t// out\n        /* \"#utility.yul\":540:917   */\n    tag_60:\n        /* \"#utility.yul\":628:631   */\n      0x00\n        /* \"#utility.yul\":656:695   */\n      tag_84\n        /* \"#utility.yul\":689:694   */\n      dup3\n        /* \"#utility.yul\":656:695   */\n      tag_56\n      jump\t// in\n    tag_84:\n        /* \"#utility.yul\":711:782   */\n      tag_85\n        /* \"#utility.yul\":775:781   */\n      dup2\n        /* \"#utility.yul\":770:773   */\n      dup6\n        /* \"#utility.yul\":711:782   */\n      tag_57\n      jump\t// in\n    tag_85:\n        /* \"#utility.yul\":704:782   */\n      swap4\n      pop\n        /* \"#utility.yul\":791:856   */\n      tag_86\n        /* \"#utility.yul\":849:855   */\n      dup2\n        /* \"#utility.yul\":844:847   */\n      dup6\n        /* \"#utility.yul\":837:841   */\n      0x20\n        /* \"#utility.yul\":830:835   */\n      dup7\n        /* \"#utility.yul\":826:842   */\n      add\n        /* \"#utility.yul\":791:856   */\n      tag_58\n      jump\t// in\n    tag_86:\n        /* \"#utility.yul\":881:910   */\n      tag_87\n        /* \"#utility.yul\":903:909   */\n      dup2\n        /* \"#utility.yul\":881:910   */\n      tag_59\n      jump\t// in\n    tag_87:\n        /* \"#utility.yul\":876:879   */\n      dup5\n        /* \"#utility.yul\":872:911   */\n      add\n        /* \"#utility.yul\":865:911   */\n      swap2\n      pop\n        /* \"#utility.yul\":632:917   */\n      pop\n        /* \"#utility.yul\":540:917   */\n      swap3\n      swap2\n      pop\n      pop\n      jump\t// out\n        /* \"#utility.yul\":923:1236   */\n    tag_14:\n        /* \"#utility.yul\":1036:1040   */\n      0x00\n        /* \"#utility.yul\":1074:1076   */\n      0x20\n        /* \"#utility.yul\":1063:1072   */\n      dup3\n        /* \"#utility.yul\":1059:1077   */\n      add\n        /* \"#utility.yul\":1051:1077   */\n      swap1\n      pop\n        /* \"#utility.yul\":1123:1132   */\n      dup2\n        /* \"#utility.yul\":1117:1121   */\n      dup2\n        /* \"#utility.yul\":1113:1133   */\n      sub\n        /* \"#utility.yul\":1109:1110   */\n      0x00\n        /* \"#utility.yul\":1098:1107   */\n      dup4\n        /* \"#utility.yul\":1094:1111   */\n      add\n        /* \"#utility.yul\":1087:1134   */\n      mstore\n        /* \"#utility.yul\":1151:1229   */\n      tag_89\n        /* \"#utility.yul\":1224:1228   */\n      dup2\n        /* \"#utility.yul\":1215:1221   */\n      dup5\n        /* \"#utility.yul\":1151:1229   */\n      tag_60\n      jump\t// in\n    tag_89:\n        /* \"#utility.yul\":1143:1229   */\n      swap1\n      pop\n        /* \"#utility.yul\":923:1236   */\n      swap3\n      swap2\n      pop\n      pop\n      jump\t// out\n        /* \"#utility.yul\":1242:1319   */\n    tag_61:\n        /* \"#utility.yul\":1279:1286   */\n      0x00\n        /* \"#utility.yul\":1308:1313   */\n      dup2\n        /* \"#utility.yul\":1297:1313   */\n      swap1\n      pop\n        /* \"#utility.yul\":1242:1319   */\n      swap2\n      swap1\n      pop\n      jump\t// out\n        /* \"#utility.yul\":1325:1443   */\n    tag_62:\n        /* \"#utility.yul\":1412:1436   */\n      tag_92\n        /* \"#utility.yul\":1430:1435   */\n      dup2\n        /* \"#utility.yul\":1412:1436   */\n      tag_61\n      jump\t// in\n    tag_92:\n        /* \"#utility.yul\":1407:1410   */\n      dup3\n        /* \"#utility.yul\":1400:1437   */\n      mstore\n        /* \"#utility.yul\":1325:1443   */\n      pop\n      pop\n      jump\t// out\n        /* \"#utility.yul\":1449:1671   */\n    tag_18:\n        /* \"#utility.yul\":1542:1546   */\n      0x00\n        /* \"#utility.yul\":1580:1582   */\n      0x20\n        /* \"#utility.yul\":1569:1578   */\n      dup3\n        /* \"#utility.yul\":1565:1583   */\n      add\n        /* \"#utility.yul\":1557:1583   */\n      swap1\n      pop\n        /* \"#utility.yul\":1593:1664   */\n      tag_94\n        /* \"#utility.yul\":1661:1662   */\n      0x00\n        /* \"#utility.yul\":1650:1659   */\n      dup4\n        /* \"#utility.yul\":1646:1663   */\n      add\n        /* \"#utility.yul\":1637:1643   */\n      dup5\n        /* \"#utility.yul\":1593:1664   */\n      tag_62\n      jump\t// in\n    tag_94:\n        /* \"#utility.yul\":1449:1671   */\n      swap3\n      swap2\n      pop\n      pop\n      jump\t// out\n        /* \"#utility.yul\":1677:1768   */\n    tag_63:\n        /* \"#utility.yul\":1713:1720   */\n      0x00\n        /* \"#utility.yul\":1753:1761   */\n      0xffffff\n        /* \"#utility.yul\":1746:1751   */\n      dup3\n        /* \"#utility.yul\":1742:1762   */\n      and\n        /* \"#utility.yul\":1731:1762   */\n      swap1\n      pop\n        /* \"#utility.yul\":1677:1768   */\n      swap2\n      swap1\n      pop\n      jump\t// out\n        /* \"#utility.yul\":1774:1889   */\n    tag_64:\n        /* \"#utility.yul\":1859:1882   */\n      tag_97\n        /* \"#utility.yul\":1876:1881   */\n      dup2\n        /* \"#utility.yul\":1859:1882   */\n      tag_63\n      jump\t// in\n    tag_97:\n        /* \"#utility.yul\":1854:1857   */\n      dup3\n        /* \"#utility.yul\":1847:1883   */\n      mstore\n        /* \"#utility.yul\":1774:1889   */\n      pop\n      pop\n      jump\t// out\n        /* \"#utility.yul\":1895:2113   */\n    tag_22:\n        /* \"#utility.yul\":1986:1990   */\n      0x00\n        /* \"#utility.yul\":2024:2026   */\n      0x20\n        /* \"#utility.yul\":2013:2022   */\n      dup3\n        /* \"#utility.yul\":2009:2027   */\n      add\n        /* \"#utility.yul\":2001:2027   */\n      swap1\n      pop\n        /* \"#utility.yul\":2037:2106   */\n      tag_99\n        /* \"#utility.yul\":2103:2104   */\n      0x00\n        /* \"#utility.yul\":2092:2101   */\n      dup4\n        /* \"#utility.yul\":2088:2105   */\n      add\n        /* \"#utility.yul\":2079:2085   */\n      dup5\n        /* \"#utility.yul\":2037:2106   */\n      tag_64\n      jump\t// in\n    tag_99:\n        /* \"#utility.yul\":1895:2113   */\n      swap3\n      swap2\n      pop\n      pop\n      jump\t// out\n        /* \"#utility.yul\":2200:2317   */\n    tag_66:\n        /* \"#utility.yul\":2309:2310   */\n      0x00\n        /* \"#utility.yul\":2306:2307   */\n      0x00\n        /* \"#utility.yul\":2299:2311   */\n      revert\n        /* \"#utility.yul\":2446:2535   */\n    tag_68:\n        /* \"#utility.yul\":2482:2489   */\n      0x00\n        /* \"#utility.yul\":2522:2528   */\n      0xffff\n        /* \"#utility.yul\":2515:2520   */\n      dup3\n        /* \"#utility.yul\":2511:2529   */\n      and\n        /* \"#utility.yul\":2500:2529   */\n      swap1\n      pop\n        /* \"#utility.yul\":2446:2535   */\n      swap2\n      swap1\n      pop\n      jump\t// out\n        /* \"#utility.yul\":2541:2661   */\n    tag_69:\n        /* \"#utility.yul\":2613:2636   */\n      tag_105\n        /* \"#utility.yul\":2630:2635   */\n      dup2\n        /* \"#utility.yul\":2613:2636   */\n      tag_68\n      jump\t// in\n    tag_105:\n        /* \"#utility.yul\":2606:2611   */\n      dup2\n        /* \"#utility.yul\":2603:2637   */\n      eq\n        /* \"#utility.yul\":2593:2655   */\n      tag_106\n      jumpi\n        /* \"#utility.yul\":2651:2652   */\n      0x00\n        /* \"#utility.yul\":2648:2649   */\n      0x00\n        /* \"#utility.yul\":2641:2653   */\n      revert\n        /* \"#utility.yul\":2593:2655   */\n    tag_106:\n        /* \"#utility.yul\":2541:2661   */\n      pop\n      jump\t// out\n        /* \"#utility.yul\":2667:2804   */\n    tag_70:\n        /* \"#utility.yul\":2712:2717   */\n      0x00\n        /* \"#utility.yul\":2750:2756   */\n      dup2\n        /* \"#utility.yul\":2737:2757   */\n      calldataload\n        /* \"#utility.yul\":2728:2757   */\n      swap1\n      pop\n        /* \"#utility.yul\":2766:2798   */\n      tag_108\n        /* \"#utility.yul\":2792:2797   */\n      dup2\n        /* \"#utility.yul\":2766:2798   */\n      tag_69\n      jump\t// in\n    tag_108:\n        /* \"#utility.yul\":2667:2804   */\n      swap3\n      swap2\n      pop\n      pop\n      jump\t// out\n        /* \"#utility.yul\":2810:3137   */\n    tag_27:\n        /* \"#utility.yul\":2868:2874   */\n      0x00\n        /* \"#utility.yul\":2917:2919   */\n      0x20\n        /* \"#utility.yul\":2905:2914   */\n      dup3\n        /* \"#utility.yul\":2896:2903   */\n      dup5\n        /* \"#utility.yul\":2892:2915   */\n      sub\n        /* \"#utility.yul\":2888:2920   */\n      slt\n        /* \"#utility.yul\":2885:3004   */\n      iszero\n      tag_110\n      jumpi\n        /* \"#utility.yul\":2923:3002   */\n      tag_111\n      tag_66\n      jump\t// in\n    tag_111:\n        /* \"#utility.yul\":2885:3004   */\n    tag_110:\n        /* \"#utility.yul\":3043:3044   */\n      0x00\n        /* \"#utility.yul\":3068:3120   */\n      tag_112\n        /* \"#utility.yul\":3112:3119   */\n      dup5\n        /* \"#utility.yul\":3103:3109   */\n      dup3\n        /* \"#utility.yul\":3092:3101   */\n      dup6\n        /* \"#utility.yul\":3088:3110   */\n      add\n        /* \"#utility.yul\":3068:3120   */\n      tag_70\n      jump\t// in\n    tag_112:\n        /* \"#utility.yul\":3058:3120   */\n      swap2\n      pop\n        /* \"#utility.yul\":3014:3130   */\n      pop\n        /* \"#utility.yul\":2810:3137   */\n      swap3\n      swap2\n      pop\n      pop\n      jump\t// out\n        /* \"#utility.yul\":3143:3258   */\n    tag_71:\n        /* \"#utility.yul\":3228:3251   */\n      tag_114\n        /* \"#utility.yul\":3245:3250   */\n      dup2\n        /* \"#utility.yul\":3228:3251   */\n      tag_68\n      jump\t// in\n    tag_114:\n        /* \"#utility.yul\":3223:3226   */\n      dup3\n        /* \"#utility.yul\":3216:3252   */\n      mstore\n        /* \"#utility.yul\":3143:3258   */\n      pop\n      pop\n      jump\t// out\n        /* \"#utility.yul\":3264:3482   */\n    tag_32:\n        /* \"#utility.yul\":3355:3359   */\n      0x00\n        /* \"#utility.yul\":3393:3395   */\n      0x20\n        /* \"#utility.yul\":3382:3391   */\n      dup3\n        /* \"#utility.yul\":3378:3396   */\n      add\n        /* \"#utility.yul\":3370:3396   */\n      swap1\n      pop\n        /* \"#utility.yul\":3406:3475   */\n      tag_116\n        /* \"#utility.yul\":3472:3473   */\n      0x00\n        /* \"#utility.yul\":3461:3470   */\n      dup4\n        /* \"#utility.yul\":3457:3474   */\n      add\n        /* \"#utility.yul\":3448:3454   */\n      dup5\n        /* \"#utility.yul\":3406:3475   */\n      tag_71\n      jump\t// in\n    tag_116:\n        /* \"#utility.yul\":3264:3482   */\n      swap3\n      swap2\n      pop\n      pop\n      jump\t// out\n        /* \"#utility.yul\":3488:3610   */\n    tag_72:\n        /* \"#utility.yul\":3561:3585   */\n      tag_118\n        /* \"#utility.yul\":3579:3584   */\n      dup2\n        /* \"#utility.yul\":3561:3585   */\n      tag_61\n      jump\t// in\n    tag_118:\n        /* \"#utility.yul\":3554:3559   */\n      dup2\n        /* \"#utility.yul\":3551:3586   */\n      eq\n        /* \"#utility.yul\":3541:3604   */\n      tag_119\n      jumpi\n        /* \"#utility.yul\":3600:3601   */\n      0x00\n        /* \"#utility.yul\":3597:3598   */\n      0x00\n        /* \"#utility.yul\":3590:3602   */\n      revert\n        /* \"#utility.yul\":3541:3604   */\n    tag_119:\n        /* \"#utility.yul\":3488:3610   */\n      pop\n      jump\t// out\n        /* \"#utility.yul\":3616:3755   */\n    tag_73:\n        /* \"#utility.yul\":3662:3667   */\n      0x00\n        /* \"#utility.yul\":3700:3706   */\n      dup2\n        /* \"#utility.yul\":3687:3707   */\n      calldataload\n        /* \"#utility.yul\":3678:3707   */\n      swap1\n      pop\n        /* \"#utility.yul\":3716:3749   */\n      tag_121\n        /* \"#utility.yul\":3743:3748   */\n      dup2\n        /* \"#utility.yul\":3716:3749   */\n      tag_72\n      jump\t// in\n    tag_121:\n        /* \"#utility.yul\":3616:3755   */\n      swap3\n      swap2\n      pop\n      pop\n      jump\t// out\n        /* \"#utility.yul\":3761:4090   */\n    tag_35:\n        /* \"#utility.yul\":3820:3826   */\n      0x00\n        /* \"#utility.yul\":3869:3871   */\n      0x20\n        /* \"#utility.yul\":3857:3866   */\n      dup3\n        /* \"#utility.yul\":3848:3855   */\n      dup5\n        /* \"#utility.yul\":3844:3867   */\n      sub\n        /* \"#utility.yul\":3840:3872   */\n      slt\n        /* \"#utility.yul\":3837:3956   */\n      iszero\n      tag_123\n      jumpi\n        /* \"#utility.yul\":3875:3954   */\n      tag_124\n      tag_66\n      jump\t// in\n    tag_124:\n        /* \"#utility.yul\":3837:3956   */\n    tag_123:\n        /* \"#utility.yul\":3995:3996   */\n      0x00\n        /* \"#utility.yul\":4020:4073   */\n      tag_125\n        /* \"#utility.yul\":4065:4072   */\n      dup5\n        /* \"#utility.yul\":4056:4062   */\n      dup3\n        /* \"#utility.yul\":4045:4054   */\n      dup6\n        /* \"#utility.yul\":4041:4063   */\n      add\n        /* \"#utility.yul\":4020:4073   */\n      tag_73\n      jump\t// in\n    tag_125:\n        /* \"#utility.yul\":4010:4073   */\n      swap2\n      pop\n        /* \"#utility.yul\":3966:4083   */\n      pop\n        /* \"#utility.yul\":3761:4090   */\n      swap3\n      swap2\n      pop\n      pop\n      jump\t// out\n        /* \"#utility.yul\":4096:4276   */\n    tag_74:\n        /* \"#utility.yul\":4144:4221   */\n      0x4e487b7100000000000000000000000000000000000000000000000000000000\n        /* \"#utility.yul\":4141:4142   */\n      0x00\n        /* \"#utility.yul\":4134:4222   */\n      mstore\n        /* \"#utility.yul\":4241:4245   */\n      0x22\n        /* \"#utility.yul\":4238:4239   */\n      0x04\n        /* \"#utility.yul\":4231:4246   */\n      mstore\n        /* \"#utility.yul\":4265:4269   */\n      0x24\n        /* \"#utility.yul\":4262:4263   */\n      0x00\n        /* \"#utility.yul\":4255:4270   */\n      revert\n        /* \"#utility.yul\":4282:4602   */\n    tag_39:\n        /* \"#utility.yul\":4326:4332   */\n      0x00\n        /* \"#utility.yul\":4363:4364   */\n      0x02\n        /* \"#utility.yul\":4357:4361   */\n      dup3\n        /* \"#utility.yul\":4353:4365   */\n      div\n        /* \"#utility.yul\":4343:4365   */\n      swap1\n      pop\n        /* \"#utility.yul\":4410:4411   */\n      0x01\n        /* \"#utility.yul\":4404:4408   */\n      dup3\n        /* \"#utility.yul\":4400:4412   */\n      and\n        /* \"#utility.yul\":4431:4449   */\n      dup1\n        /* \"#utility.yul\":4421:4502   */\n      tag_128\n      jumpi\n        /* \"#utility.yul\":4487:4491   */\n      0x7f\n        /* \"#utility.yul\":4479:4485   */\n      dup3\n        /* \"#utility.yul\":4475:4492   */\n      and\n        /* \"#utility.yul\":4465:4492   */\n      swap2\n      pop\n        /* \"#utility.yul\":4421:4502   */\n    tag_128:\n        /* \"#utility.yul\":4549:4551   */\n      0x20\n        /* \"#utility.yul\":4541:4547   */\n      dup3\n        /* \"#utility.yul\":4538:4552   */\n      lt\n        /* \"#utility.yul\":4518:4536   */\n      dup2\n        /* \"#utility.yul\":4515:4553   */\n      sub\n        /* \"#utility.yul\":4512:4596   */\n      tag_129\n      jumpi\n        /* \"#utility.yul\":4568:4586   */\n      tag_130\n      tag_74\n      jump\t// in\n    tag_130:\n        /* \"#utility.yul\":4512:4596   */\n    tag_129:\n        /* \"#utility.yul\":4333:4602   */\n      pop\n        /* \"#utility.yul\":4282:4602   */\n      swap2\n      swap1\n      pop\n      jump\t// out\n        /* \"#utility.yul\":4608:4773   */\n    tag_75:\n        /* \"#utility.yul\":4748:4765   */\n      0x546f6f206d616e79207368617265730000000000000000000000000000000000\n        /* \"#utility.yul\":4744:4745   */\n      0x00\n        /* \"#utility.yul\":4736:4742   */\n      dup3\n        /* \"#utility.yul\":4732:4746   */\n      add\n        /* \"#utility.yul\":4725:4766   */\n      mstore\n        /* \"#utility.yul\":4608:4773   */\n      pop\n      jump\t// out\n        /* \"#utility.yul\":4779:5145   */\n    tag_76:\n        /* \"#utility.yul\":4921:4924   */\n      0x00\n        /* \"#utility.yul\":4942:5009   */\n      tag_133\n        /* \"#utility.yul\":5006:5008   */\n      0x0f\n        /* \"#utility.yul\":5001:5004   */\n      dup4\n        /* \"#utility.yul\":4942:5009   */\n      tag_57\n      jump\t// in\n    tag_133:\n        /* \"#utility.yul\":4935:5009   */\n      swap2\n      pop\n        /* \"#utility.yul\":5018:5111   */\n      tag_134\n        /* \"#utility.yul\":5107:5110   */\n      dup3\n        /* \"#utility.yul\":5018:5111   */\n      tag_75\n      jump\t// in\n    tag_134:\n        /* \"#utility.yul\":5136:5138   */\n      0x20\n        /* \"#utility.yul\":5131:5134   */\n      dup3\n        /* \"#utility.yul\":5127:5139   */\n      add\n        /* \"#utility.yul\":5120:5139   */\n      swap1\n      pop\n        /* \"#utility.yul\":4779:5145   */\n      swap2\n      swap1\n      pop\n      jump\t// out\n        /* \"#utility.yul\":5151:5570   */\n    tag_49:\n        /* \"#utility.yul\":5317:5321   */\n      0x00\n        /* \"#utility.yul\":5355:5357   */\n      0x20\n        /* \"#utility.yul\":5344:5353   */\n      dup3\n        /* \"#utility.yul\":5340:5358   */\n      add\n        /* \"#utility.yul\":5332:5358   */\n      swap1\n      pop\n        /* \"#utility.yul\":5404:5413   */\n      dup2\n        /* \"#utility.yul\":5398:5402   */\n      dup2\n        /* \"#utility.yul\":5394:5414   */\n      sub\n        /* \"#utility.yul\":5390:5391   */\n      0x00\n        /* \"#utility.yul\":5379:5388   */\n      dup4\n        /* \"#utility.yul\":5375:5392   */\n      add\n        /* \"#utility.yul\":5368:5415   */\n      mstore\n        /* \"#utility.yul\":5432:5563   */\n      tag_136\n        /* \"#utility.yul\":5558:5562   */\n      dup2\n        /* \"#utility.yul\":5432:5563   */\n      tag_76\n      jump\t// in\n    tag_136:\n        /* \"#utility.yul\":5424:5563   */\n      swap1\n      pop\n        /* \"#utility.yul\":5151:5570   */\n      swap2\n      swap1\n      pop\n      jump\t// out\n        /* \"#utility.yul\":5576:5756   */\n    tag_77:\n        /* \"#utility.yul\":5624:5701   */\n      0x4e487b7100000000000000000000000000000000000000000000000000000000\n        /* \"#utility.yul\":5621:5622   */\n      0x00\n        /* \"#utility.yul\":5614:5702   */\n      mstore\n        /* \"#utility.yul\":5721:5725   */\n      0x11\n        /* \"#utility.yul\":5718:5719   */\n      0x04\n        /* \"#utility.yul\":5711:5726   */\n      mstore\n        /* \"#utility.yul\":5745:5749   */\n      0x24\n        /* \"#utility.yul\":5742:5743   */\n      0x00\n        /* \"#utility.yul\":5735:5750   */\n      revert\n        /* \"#utility.yul\":5762:5955   */\n    tag_51:\n        /* \"#utility.yul\":5801:5804   */\n      0x00\n        /* \"#utility.yul\":5820:5839   */\n      tag_139\n        /* \"#utility.yul\":5837:5838   */\n      dup3\n        /* \"#utility.yul\":5820:5839   */\n      tag_68\n      jump\t// in\n    tag_139:\n        /* \"#utility.yul\":5815:5839   */\n      swap2\n      pop\n        /* \"#utility.yul\":5853:5872   */\n      tag_140\n        /* \"#utility.yul\":5870:5871   */\n      dup4\n        /* \"#utility.yul\":5853:5872   */\n      tag_68\n      jump\t// in\n    tag_140:\n        /* \"#utility.yul\":5848:5872   */\n      swap3\n      pop\n        /* \"#utility.yul\":5895:5896   */\n      dup3\n        /* \"#utility.yul\":5892:5893   */\n      dup3\n        /* \"#utility.yul\":5888:5897   */\n      add\n        /* \"#utility.yul\":5881:5897   */\n      swap1\n      pop\n        /* \"#utility.yul\":5918:5924   */\n      0xffff\n        /* \"#utility.yul\":5913:5916   */\n      dup2\n        /* \"#utility.yul\":5910:5925   */\n      gt\n        /* \"#utility.yul\":5907:5948   */\n      iszero\n      tag_141\n      jumpi\n        /* \"#utility.yul\":5928:5946   */\n      tag_142\n      tag_77\n      jump\t// in\n    tag_142:\n        /* \"#utility.yul\":5907:5948   */\n    tag_141:\n        /* \"#utility.yul\":5762:5955   */\n      swap3\n      swap2\n      pop\n      pop\n      jump\t// out\n\n    auxdata: 0xa2646970667358221220ff53e3585511c74b71c6f26780abeea4160c4d75ce52b64cd8d277608fb0ad5064736f6c634300081c0033\n}\n",
				"bytecode": {
					"linkReferences": {},
					"object": "608060405234801561000f575f5ffd5b50604051610c17380380610c1783398181016040528101906100319190610279565b835f5f6101000a81548161ffff021916908361ffff160217905550815f60026101000a81548162ffffff021916908362ffffff1602179055508060018190555082600290816100809190610500565b50505050506105cf565b5f604051905090565b5f5ffd5b5f5ffd5b5f61ffff82169050919050565b6100b18161009b565b81146100bb575f5ffd5b50565b5f815190506100cc816100a8565b92915050565b5f5ffd5b5f5ffd5b5f601f19601f8301169050919050565b7f4e487b71000000000000000000000000000000000000000000000000000000005f52604160045260245ffd5b610120826100da565b810181811067ffffffffffffffff8211171561013f5761013e6100ea565b5b80604052505050565b5f61015161008a565b905061015d8282610117565b919050565b5f67ffffffffffffffff82111561017c5761017b6100ea565b5b610185826100da565b9050602081019050919050565b8281835e5f83830152505050565b5f6101b26101ad84610162565b610148565b9050828152602081018484840111156101ce576101cd6100d6565b5b6101d9848285610192565b509392505050565b5f82601f8301126101f5576101f46100d2565b5b81516102058482602086016101a0565b91505092915050565b5f62ffffff82169050919050565b6102258161020e565b811461022f575f5ffd5b50565b5f815190506102408161021c565b92915050565b5f819050919050565b61025881610246565b8114610262575f5ffd5b50565b5f815190506102738161024f565b92915050565b5f5f5f5f6080858703121561029157610290610093565b5b5f61029e878288016100be565b945050602085015167ffffffffffffffff8111156102bf576102be610097565b5b6102cb878288016101e1565b93505060406102dc87828801610232565b92505060606102ed87828801610265565b91505092959194509250565b5f81519050919050565b7f4e487b71000000000000000000000000000000000000000000000000000000005f52602260045260245ffd5b5f600282049050600182168061034757607f821691505b60208210810361035a57610359610303565b5b50919050565b5f819050815f5260205f209050919050565b5f6020601f8301049050919050565b5f82821b905092915050565b5f600883026103bc7fffffffffffffffffffffffffffffffffffffffffffffffffffffffffffffffff82610381565b6103c68683610381565b95508019841693508086168417925050509392505050565b5f819050919050565b5f6104016103fc6103f784610246565b6103de565b610246565b9050919050565b5f819050919050565b61041a836103e7565b61042e61042682610408565b84845461038d565b825550505050565b5f5f905090565b610445610436565b610450818484610411565b505050565b5b81811015610473576104685f8261043d565b600181019050610456565b5050565b601f8211156104b85761048981610360565b61049284610372565b810160208510156104a1578190505b6104b56104ad85610372565b830182610455565b50505b505050565b5f82821c905092915050565b5f6104d85f19846008026104bd565b1980831691505092915050565b5f6104f083836104c9565b9150826002028217905092915050565b610509826102f9565b67ffffffffffffffff811115610522576105216100ea565b5b61052c8254610330565b610537828285610477565b5f60209050601f831160018114610568575f8415610556578287015190505b61056085826104e5565b8655506105c7565b601f19841661057686610360565b5f5b8281101561059d57848901518255600182019150602085019450602081019050610578565b868310156105ba57848901516105b6601f8916826104c9565b8355505b6001600288020188555050505b505050505050565b61063b806105dc5f395ff3fe608060405234801561000f575f5ffd5b506004361061007b575f3560e01c80634c764809116100595780634c764809146100d957806352c98689146100e35780636d45e2a5146100ff5780638f6a861a1461011d5761007b565b806306fdde031461007f5780633f83ea3b1461009d57806349574402146100bb575b5f5ffd5b61008761014d565b6040516100949190610374565b60405180910390f35b6100a56101d9565b6040516100b291906103ac565b60405180910390f35b6100c36101df565b6040516100d091906103e2565b60405180910390f35b6100e16101f6565b005b6100fd60048036038101906100f89190610436565b610215565b005b6101076102e5565b6040516101149190610470565b60405180910390f35b610137600480360381019061013291906104b3565b6102fa565b60405161014491906103ac565b60405180910390f35b6002805461015a9061050b565b80601f01602080910402602001604051908101604052809291908181526020018280546101869061050b565b80156101d15780601f106101a8576101008083540402835291602001916101d1565b820191905f5260205f20905b8154815290600101906020018083116101b457829003601f168201915b505050505081565b60015481565b5f5f60029054906101000a900462ffffff16905090565b6103e85f5f6101000a81548161ffff021916908361ffff160217905550565b6113888161ffff16111561025e576040517f08c379a000000000000000000000000000000000000000000000000000000000815260040161025590610585565b60405180910390fd5b5f815f5f9054906101000a900461ffff1661027991906105d0565b61ffff1690506113888111156102c657806040517f0f7d41090000000000000000000000000000000000000000000000000000000081526004016102bd91906103ac565b60405180910390fd5b805f5f6101000a81548161ffff021916908361ffff1602179055505050565b5f5f5f9054906101000a900461ffff16905090565b5f81549050919050565b5f81519050919050565b5f82825260208201905092915050565b8281835e5f83830152505050565b5f601f19601f8301169050919050565b5f61034682610304565b610350818561030e565b935061036081856020860161031e565b6103698161032c565b840191505092915050565b5f6020820190508181035f83015261038c818461033c565b905092915050565b5f819050919050565b6103a681610394565b82525050565b5f6020820190506103bf5f83018461039d565b92915050565b5f62ffffff82169050919050565b6103dc816103c5565b82525050565b5f6020820190506103f55f8301846103d3565b92915050565b5f5ffd5b5f61ffff82169050919050565b610415816103ff565b811461041f575f5ffd5b50565b5f813590506104308161040c565b92915050565b5f6020828403121561044b5761044a6103fb565b5b5f61045884828501610422565b91505092915050565b61046a816103ff565b82525050565b5f6020820190506104835f830184610461565b92915050565b61049281610394565b811461049c575f5ffd5b50565b5f813590506104ad81610489565b92915050565b5f602082840312156104c8576104c76103fb565b5b5f6104d58482850161049f565b91505092915050565b7f4e487b71000000000000000000000000000000000000000000000000000000005f52602260045260245ffd5b5f600282049050600182168061052257607f821691505b602082108103610535576105346104de565b5b50919050565b7f546f6f206d616e792073686172657300000000000000000000000000000000005f82015250565b5f61056f600f8361030e565b915061057a8261053b565b602082019050919050565b5f6020820190508181035f83015261059c81610563565b9050919050565b7f4e487b71000000000000000000000000000000000000000000000000000000005f52601160045260245ffd5b5f6105da826103ff565b91506105e5836103ff565b9250828201905061ffff8111156105ff576105fe6105a3565b5b9291505056fea2646970667358221220ff53e3585511c74b71c6f26780abeea4160c4d75ce52b64cd8d277608fb0ad5064736f6c634300081c0033",
					"opcodes": "PUSH1 0x80 PUSH1 0x40 MSTORE CALLVALUE DUP1 ISZERO PUSH2 0xF JUMPI PUSH0 PUSH0 REVERT JUMPDEST POP PUSH1 0x40 MLOAD PUSH2 0xC17 CODESIZE SUB DUP1 PUSH2 0xC17 DUP4 CODECOPY DUP2 DUP2 ADD PUSH1 0x40 MSTORE DUP2 ADD SWAP1 PUSH2 0x31 SWAP2 SWAP1 PUSH2 0x279 JUMP JUMPDEST DUP4 PUSH0 PUSH0 PUSH2 0x100 EXP DUP2 SLOAD DUP2 PUSH2 0xFFFF MUL NOT AND SWAP1 DUP4 PUSH2 0xFFFF AND MUL OR SWAP1 SSTORE POP DUP2 PUSH0 PUSH1 0x2 PUSH2 0x100 EXP DUP2 SLOAD DUP2 PUSH3 0xFFFFFF MUL NOT AND SWAP1 DUP4 PUSH3 0xFFFFFF AND MUL OR SWAP1 SSTORE POP DUP1 PUSH1 0x1 DUP2 SWAP1 SSTORE POP DUP3 PUSH1 0x2 SWAP1 DUP2 PUSH2 0x80 SWAP2 SWAP1 PUSH2 0x500 JUMP JUMPDEST POP POP POP POP POP PUSH2 0x5CF JUMP JUMPDEST PUSH0 PUSH1 0x40 MLOAD SWAP1 POP SWAP1 JUMP JUMPDEST PUSH0 PUSH0 REVERT JUMPDEST PUSH0 PUSH0 REVERT JUMPDEST PUSH0 PUSH2 0xFFFF DUP3 AND SWAP1 POP SWAP2 SWAP1 POP JUMP JUMPDEST PUSH2 0xB1 DUP2 PUSH2 0x9B JUMP JUMPDEST DUP2 EQ PUSH2 0xBB JUMPI PUSH0 PUSH0 REVERT JUMPDEST POP JUMP JUMPDEST PUSH0 DUP2 MLOAD SWAP1 POP PUSH2 0xCC DUP2 PUSH2 0xA8 JUMP JUMPDEST SWAP3 SWAP2 POP POP JUMP JUMPDEST PUSH0 PUSH0 REVERT JUMPDEST PUSH0 PUSH0 REVERT JUMPDEST PUSH0 PUSH1 0x1F NOT PUSH1 0x1F DUP4 ADD AND SWAP1 POP SWAP2 SWAP1 POP JUMP JUMPDEST PUSH32 0x4E487B7100000000000000000000000000000000000000000000000000000000 PUSH0 MSTORE PUSH1 0x41 PUSH1 0x4 MSTORE PUSH1 0x24 PUSH0 REVERT JUMPDEST PUSH2 0x120 DUP3 PUSH2 0xDA JUMP JUMPDEST DUP2 ADD DUP2 DUP2 LT PUSH8 0xFFFFFFFFFFFFFFFF DUP3 GT OR ISZERO PUSH2 0x13F JUMPI PUSH2 0x13E PUSH2 0xEA JUMP JUMPDEST JUMPDEST DUP1 PUSH1 0x40 MSTORE POP POP POP JUMP JUMPDEST PUSH0 PUSH2 0x151 PUSH2 0x8A JUMP JUMPDEST SWAP1 POP PUSH2 0x15D DUP3 DUP3 PUSH2 0x117 JUMP JUMPDEST SWAP2 SWAP1 POP JUMP JUMPDEST PUSH0 PUSH8 0xFFFFFFFFFFFFFFFF DUP3 GT ISZERO PUSH2 0x17C JUMPI PUSH2 0x17B PUSH2 0xEA JUMP JUMPDEST JUMPDEST PUSH2 0x185 DUP3 PUSH2 0xDA JUMP JUMPDEST SWAP1 POP PUSH1 0x20 DUP2 ADD SWAP1 POP SWAP2 SWAP1 POP JUMP JUMPDEST DUP3 DUP2 DUP4 MCOPY PUSH0 DUP4 DUP4 ADD MSTORE POP POP POP JUMP JUMPDEST PUSH0 PUSH2 0x1B2 PUSH2 0x1AD DUP5 PUSH2 0x162 JUMP JUMPDEST PUSH2 0x148 JUMP JUMPDEST SWAP1 POP DUP3 DUP2 MSTORE PUSH1 0x20 DUP2 ADD DUP5 DUP5 DUP5 ADD GT ISZERO PUSH2 0x1CE JUMPI PUSH2 0x1CD PUSH2 0xD6 JUMP JUMPDEST JUMPDEST PUSH2 0x1D9 DUP5 DUP3 DUP6 PUSH2 0x192 JUMP JUMPDEST POP SWAP4 SWAP3 POP POP POP JUMP JUMPDEST PUSH0 DUP3 PUSH1 0x1F DUP4 ADD SLT PUSH2 0x1F5 JUMPI PUSH2 0x1F4 PUSH2 0xD2 JUMP JUMPDEST JUMPDEST DUP2 MLOAD PUSH2 0x205 DUP5 DUP3 PUSH1 0x20 DUP7 ADD PUSH2 0x1A0 JUMP JUMPDEST SWAP2 POP POP SWAP3 SWAP2 POP POP JUMP JUMPDEST PUSH0 PUSH3 0xFFFFFF DUP3 AND SWAP1 POP SWAP2 SWAP1 POP JUMP JUMPDEST PUSH2 0x225 DUP2 PUSH2 0x20E JUMP JUMPDEST DUP2 EQ PUSH2 0x22F JUMPI PUSH0 PUSH0 REVERT JUMPDEST POP JUMP JUMPDEST PUSH0 DUP2 MLOAD SWAP1 POP PUSH2 0x240 DUP2 PUSH2 0x21C JUMP JUMPDEST SWAP3 SWAP2 POP POP JUMP JUMPDEST PUSH0 DUP2 SWAP1 POP SWAP2 SWAP1 POP JUMP JUMPDEST PUSH2 0x258 DUP2 PUSH2 0x246 JUMP JUMPDEST DUP2 EQ PUSH2 0x262 JUMPI PUSH0 PUSH0 REVERT JUMPDEST POP JUMP JUMPDEST PUSH0 DUP2 MLOAD SWAP1 POP PUSH2 0x273 DUP2 PUSH2 0x24F JUMP JUMPDEST SWAP3 SWAP2 POP POP JUMP JUMPDEST PUSH0 PUSH0 PUSH0 PUSH0 PUSH1 0x80 DUP6 DUP8 SUB SLT ISZERO PUSH2 0x291 JUMPI PUSH2 0x290 PUSH2 0x93 JUMP JUMPDEST JUMPDEST PUSH0 PUSH2 0x29E DUP8 DUP3 DUP9 ADD PUSH2 0xBE JUMP JUMPDEST SWAP5 POP POP PUSH1 0x20 DUP6 ADD MLOAD PUSH8 0xFFFFFFFFFFFFFFFF DUP2 GT ISZERO PUSH2 0x2BF JUMPI PUSH2 0x2BE PUSH2 0x97 JUMP JUMPDEST JUMPDEST PUSH2 0x2CB DUP8 DUP3 DUP9 ADD PUSH2 0x1E1 JUMP JUMPDEST SWAP4 POP POP PUSH1 0x40 PUSH2 0x2DC DUP8 DUP3 DUP9 ADD PUSH2 0x232 JUMP JUMPDEST SWAP3 POP POP PUSH1 0x60 PUSH2 0x2ED DUP8 DUP3 DUP9 ADD PUSH2 0x265 JUMP JUMPDEST SWAP2 POP POP SWAP3 SWAP6 SWAP2 SWAP5 POP SWAP3 POP JUMP JUMPDEST PUSH0 DUP2 MLOAD SWAP1 POP SWAP2 SWAP1 POP JUMP JUMPDEST PUSH32 0x4E487B7100000000000000000000000000000000000000000000000000000000 PUSH0 MSTORE PUSH1 0x22 PUSH1 0x4 MSTORE PUSH1 0x24 PUSH0 REVERT JUMPDEST PUSH0 PUSH1 0x2 DUP3 DIV SWAP1 POP PUSH1 0x1 DUP3 AND DUP1 PUSH2 0x347 JUMPI PUSH1 0x7F DUP3 AND SWAP2 POP JUMPDEST PUSH1 0x20 DUP3 LT DUP2 SUB PUSH2 0x35A JUMPI PUSH2 0x359 PUSH2 0x303 JUMP JUMPDEST JUMPDEST POP SWAP2 SWAP1 POP JUMP JUMPDEST PUSH0 DUP2 SWAP1 POP DUP2 PUSH0 MSTORE PUSH1 0x20 PUSH0 KECCAK256 SWAP1 POP SWAP2 SWAP1 POP JUMP JUMPDEST PUSH0 PUSH1 0x20 PUSH1 0x1F DUP4 ADD DIV SWAP1 POP SWAP2 SWAP1 POP JUMP JUMPDEST PUSH0 DUP3 DUP3 SHL SWAP1 POP SWAP3 SWAP2 POP POP JUMP JUMPDEST PUSH0 PUSH1 0x8 DUP4 MUL PUSH2 0x3BC PUSH32 0xFFFFFFFFFFFFFFFFFFFFFFFFFFFFFFFFFFFFFFFFFFFFFFFFFFFFFFFFFFFFFFFF DUP3 PUSH2 0x381 JUMP JUMPDEST PUSH2 0x3C6 DUP7 DUP4 PUSH2 0x381 JUMP JUMPDEST SWAP6 POP DUP1 NOT DUP5 AND SWAP4 POP DUP1 DUP7 AND DUP5 OR SWAP3 POP POP POP SWAP4 SWAP3 POP POP POP JUMP JUMPDEST PUSH0 DUP2 SWAP1 POP SWAP2 SWAP1 POP JUMP JUMPDEST PUSH0 PUSH2 0x401 PUSH2 0x3FC PUSH2 0x3F7 DUP5 PUSH2 0x246 JUMP JUMPDEST PUSH2 0x3DE JUMP JUMPDEST PUSH2 0x246 JUMP JUMPDEST SWAP1 POP SWAP2 SWAP1 POP JUMP JUMPDEST PUSH0 DUP2 SWAP1 POP SWAP2 SWAP1 POP JUMP JUMPDEST PUSH2 0x41A DUP4 PUSH2 0x3E7 JUMP JUMPDEST PUSH2 0x42E PUSH2 0x426 DUP3 PUSH2 0x408 JUMP JUMPDEST DUP5 DUP5 SLOAD PUSH2 0x38D JUMP JUMPDEST DUP3 SSTORE POP POP POP POP JUMP JUMPDEST PUSH0 PUSH0 SWAP1 POP SWAP1 JUMP JUMPDEST PUSH2 0x445 PUSH2 0x436 JUMP JUMPDEST PUSH2 0x450 DUP2 DUP5 DUP5 PUSH2 0x411 JUMP JUMPDEST POP POP POP JUMP JUMPDEST JUMPDEST DUP2 DUP2 LT ISZERO PUSH2 0x473 JUMPI PUSH2 0x468 PUSH0 DUP3 PUSH2 0x43D JUMP JUMPDEST PUSH1 0x1 DUP2 ADD SWAP1 POP PUSH2 0x456 JUMP JUMPDEST POP POP JUMP JUMPDEST PUSH1 0x1F DUP3 GT ISZERO PUSH2 0x4B8 JUMPI PUSH2 0x489 DUP2 PUSH2 0x360 JUMP JUMPDEST PUSH2 0x492 DUP5 PUSH2 0x372 JUMP JUMPDEST DUP2 ADD PUSH1 0x20 DUP6 LT ISZERO PUSH2 0x4A1 JUMPI DUP2 SWAP1 POP JUMPDEST PUSH2 0x4B5 PUSH2 0x4AD DUP6 PUSH2 0x372 JUMP JUMPDEST DUP4 ADD DUP3 PUSH2 0x455 JUMP JUMPDEST POP POP JUMPDEST POP POP POP JUMP JUMPDEST PUSH0 DUP3 DUP3 SHR SWAP1 POP SWAP3 SWAP2 POP POP JUMP JUMPDEST PUSH0 PUSH2 0x4D8 PUSH0 NOT DUP5 PUSH1 0x8 MUL PUSH2 0x4BD JUMP JUMPDEST NOT DUP1 DUP4 AND SWAP2 POP POP SWAP3 SWAP2 POP POP JUMP JUMPDEST PUSH0 PUSH2 0x4F0 DUP4 DUP4 PUSH2 0x4C9 JUMP JUMPDEST SWAP2 POP DUP3 PUSH1 0x2 MUL DUP3 OR SWAP1 POP SWAP3 SWAP2 POP POP JUMP JUMPDEST PUSH2 0x509 DUP3 PUSH2 0x2F9 JUMP JUMPDEST PUSH8 0xFFFFFFFFFFFFFFFF DUP2 GT ISZERO PUSH2 0x522 JUMPI PUSH2 0x521 PUSH2 0xEA JUMP JUMPDEST JUMPDEST PUSH2 0x52C DUP3 SLOAD PUSH2 0x330 JUMP JUMPDEST PUSH2 0x537 DUP3 DUP3 DUP6 PUSH2 0x477 JUMP JUMPDEST PUSH0 PUSH1 0x20 SWAP1 POP PUSH1 0x1F DUP4 GT PUSH1 0x1 DUP2 EQ PUSH2 0x568 JUMPI PUSH0 DUP5 ISZERO PUSH2 0x556 JUMPI DUP3 DUP8 ADD MLOAD SWAP1 POP JUMPDEST PUSH2 0x560 DUP6 DUP3 PUSH2 0x4E5 JUMP JUMPDEST DUP7 SSTORE POP PUSH2 0x5C7 JUMP JUMPDEST PUSH1 0x1F NOT DUP5 AND PUSH2 0x576 DUP7 PUSH2 0x360 JUMP JUMPDEST PUSH0 JUMPDEST DUP3 DUP2 LT ISZERO PUSH2 0x59D JUMPI DUP5 DUP10 ADD MLOAD DUP3 SSTORE PUSH1 0x1 DUP3 ADD SWAP2 POP PUSH1 0x20 DUP6 ADD SWAP5 POP PUSH1 0x20 DUP2 ADD SWAP1 POP PUSH2 0x578 JUMP JUMPDEST DUP7 DUP4 LT ISZERO PUSH2 0x5BA JUMPI DUP5 DUP10 ADD MLOAD PUSH2 0x5B6 PUSH1 0x1F DUP10 AND DUP3 PUSH2 0x4C9 JUMP JUMPDEST DUP4 SSTORE POP JUMPDEST PUSH1 0x1 PUSH1 0x2 DUP9 MUL ADD DUP9 SSTORE POP POP POP JUMPDEST POP POP POP POP POP POP JUMP JUMPDEST PUSH2 0x63B DUP1 PUSH2 0x5DC PUSH0 CODECOPY PUSH0 RETURN INVALID PUSH1 0x80 PUSH1 0x40 MSTORE CALLVALUE DUP1 ISZERO PUSH2 0xF JUMPI PUSH0 PUSH0 REVERT JUMPDEST POP PUSH1 0x4 CALLDATASIZE LT PUSH2 0x7B JUMPI PUSH0 CALLDATALOAD PUSH1 0xE0 SHR DUP1 PUSH4 0x4C764809 GT PUSH2 0x59 JUMPI DUP1 PUSH4 0x4C764809 EQ PUSH2 0xD9 JUMPI DUP1 PUSH4 0x52C98689 EQ PUSH2 0xE3 JUMPI DUP1 PUSH4 0x6D45E2A5 EQ PUSH2 0xFF JUMPI DUP1 PUSH4 0x8F6A861A EQ PUSH2 0x11D JUMPI PUSH2 0x7B JUMP JUMPDEST DUP1 PUSH4 0x6FDDE03 EQ PUSH2 0x7F JUMPI DUP1 PUSH4 0x3F83EA3B EQ PUSH2 0x9D JUMPI DUP1 PUSH4 0x49574402 EQ PUSH2 0xBB JUMPI JUMPDEST PUSH0 PUSH0 REVERT JUMPDEST PUSH2 0x87 PUSH2 0x14D JUMP JUMPDEST PUSH1 0x40 MLOAD PUSH2 0x94 SWAP2 SWAP1 PUSH2 0x374 JUMP JUMPDEST PUSH1 0x40 MLOAD DUP1 SWAP2 SUB SWAP1 RETURN JUMPDEST PUSH2 0xA5 PUSH2 0x1D9 JUMP JUMPDEST PUSH1 0x40 MLOAD PUSH2 0xB2 SWAP2 SWAP1 PUSH2 0x3AC JUMP JUMPDEST PUSH1 0x40 MLOAD DUP1 SWAP2 SUB SWAP1 RETURN JUMPDEST PUSH2 0xC3 PUSH2 0x1DF JUMP JUMPDEST PUSH1 0x40 MLOAD PUSH2 0xD0 SWAP2 SWAP1 PUSH2 0x3E2 JUMP JUMPDEST PUSH1 0x40 MLOAD DUP1 SWAP2 SUB SWAP1 RETURN JUMPDEST PUSH2 0xE1 PUSH2 0x1F6 JUMP JUMPDEST STOP JUMPDEST PUSH2 0xFD PUSH1 0x4 DUP1 CALLDATASIZE SUB DUP2 ADD SWAP1 PUSH2 0xF8 SWAP2 SWAP1 PUSH2 0x436 JUMP JUMPDEST PUSH2 0x215 JUMP JUMPDEST STOP JUMPDEST PUSH2 0x107 PUSH2 0x2E5 JUMP JUMPDEST PUSH1 0x40 MLOAD PUSH2 0x114 SWAP2 SWAP1 PUSH2 0x470 JUMP JUMPDEST PUSH1 0x40 MLOAD DUP1 SWAP2 SUB SWAP1 RETURN JUMPDEST PUSH2 0x137 PUSH1 0x4 DUP1 CALLDATASIZE SUB DUP2 ADD SWAP1 PUSH2 0x132 SWAP2 SWAP1 PUSH2 0x4B3 JUMP JUMPDEST PUSH2 0x2FA JUMP JUMPDEST PUSH1 0x40 MLOAD PUSH2 0x144 SWAP2 SWAP1 PUSH2 0x3AC JUMP JUMPDEST PUSH1 0x40 MLOAD DUP1 SWAP2 SUB SWAP1 RETURN JUMPDEST PUSH1 0x2 DUP1 SLOAD PUSH2 0x15A SWAP1 PUSH2 0x50B JUMP JUMPDEST DUP1 PUSH1 0x1F ADD PUSH1 0x20 DUP1 SWAP2 DIV MUL PUSH1 0x20 ADD PUSH1 0x40 MLOAD SWAP1 DUP2 ADD PUSH1 0x40 MSTORE DUP1 SWAP3 SWAP2 SWAP1 DUP2 DUP2 MSTORE PUSH1 0x20 ADD DUP3 DUP1 SLOAD PUSH2 0x186 SWAP1 PUSH2 0x50B JUMP JUMPDEST DUP1 ISZERO PUSH2 0x1D1 JUMPI DUP1 PUSH1 0x1F LT PUSH2 0x1A8 JUMPI PUSH2 0x100 DUP1 DUP4 SLOAD DIV MUL DUP4 MSTORE SWAP2 PUSH1 0x20 ADD SWAP2 PUSH2 0x1D1 JUMP JUMPDEST DUP3 ADD SWAP2 SWAP1 PUSH0 MSTORE PUSH1 0x20 PUSH0 KECCAK256 SWAP1 JUMPDEST DUP2 SLOAD DUP2 MSTORE SWAP1 PUSH1 0x1 ADD SWAP1 PUSH1 0x20 ADD DUP1 DUP4 GT PUSH2 0x1B4 JUMPI DUP3 SWAP1 SUB PUSH1 0x1F AND DUP3 ADD SWAP2 JUMPDEST POP POP POP POP POP DUP2 JUMP JUMPDEST PUSH1 0x1 SLOAD DUP2 JUMP JUMPDEST PUSH0 PUSH0 PUSH1 0x2 SWAP1 SLOAD SWAP1 PUSH2 0x100 EXP SWAP1 DIV PUSH3 0xFFFFFF AND SWAP1 POP SWAP1 JUMP JUMPDEST PUSH2 0x3E8 PUSH0 PUSH0 PUSH2 0x100 EXP DUP2 SLOAD DUP2 PUSH2 0xFFFF MUL NOT AND SWAP1 DUP4 PUSH2 0xFFFF AND MUL OR SWAP1 SSTORE POP JUMP JUMPDEST PUSH2 0x1388 DUP2 PUSH2 0xFFFF AND GT ISZERO PUSH2 0x25E JUMPI PUSH1 0x40 MLOAD PUSH32 0x8C379A000000000000000000000000000000000000000000000000000000000 DUP2 MSTORE PUSH1 0x4 ADD PUSH2 0x255 SWAP1 PUSH2 0x585 JUMP JUMPDEST PUSH1 0x40 MLOAD DUP1 SWAP2 SUB SWAP1 REVERT JUMPDEST PUSH0 DUP2 PUSH0 PUSH0 SWAP1 SLOAD SWAP1 PUSH2 0x100 EXP SWAP1 DIV PUSH2 0xFFFF AND PUSH2 0x279 SWAP2 SWAP1 PUSH2 0x5D0 JUMP JUMPDEST PUSH2 0xFFFF AND SWAP1 POP PUSH2 0x1388 DUP2 GT ISZERO PUSH2 0x2C6 JUMPI DUP1 PUSH1 0x40 MLOAD PUSH32 0xF7D410900000000000000000000000000000000000000000000000000000000 DUP2 MSTORE PUSH1 0x4 ADD PUSH2 0x2BD SWAP2 SWAP1 PUSH2 0x3AC JUMP JUMPDEST PUSH1 0x40 MLOAD DUP1 SWAP2 SUB SWAP1 REVERT JUMPDEST DUP1 PUSH0 PUSH0 PUSH2 0x100 EXP DUP2 SLOAD DUP2 PUSH2 0xFFFF MUL NOT AND SWAP1 DUP4 PUSH2 0xFFFF AND MUL OR SWAP1 SSTORE POP POP POP JUMP JUMPDEST PUSH0 PUSH0 PUSH0 SWAP1 SLOAD SWAP1 PUSH2 0x100 EXP SWAP1 DIV PUSH2 0xFFFF AND SWAP1 POP SWAP1 JUMP JUMPDEST PUSH0 DUP2 SLOAD SWAP1 POP SWAP2 SWAP1 POP JUMP JUMPDEST PUSH0 DUP2 MLOAD SWAP1 POP SWAP2 SWAP1 POP JUMP JUMPDEST PUSH0 DUP3 DUP3 MSTORE PUSH1 0x20 DUP3 ADD SWAP1 POP SWAP3 SWAP2 POP POP JUMP JUMPDEST DUP3 DUP2 DUP4 MCOPY PUSH0 DUP4 DUP4 ADD MSTORE POP POP POP JUMP JUMPDEST PUSH0 PUSH1 0x1F NOT PUSH1 0x1F DUP4 ADD AND SWAP1 POP SWAP2 SWAP1 POP JUMP JUMPDEST PUSH0 PUSH2 0x346 DUP3 PUSH2 0x304 JUMP JUMPDEST PUSH2 0x350 DUP2 DUP6 PUSH2 0x30E JUMP JUMPDEST SWAP4 POP PUSH2 0x360 DUP2 DUP6 PUSH1 0x20 DUP7 ADD PUSH2 0x31E JUMP JUMPDEST PUSH2 0x369 DUP2 PUSH2 0x32C JUMP JUMPDEST DUP5 ADD SWAP2 POP POP SWAP3 SWAP2 POP POP JUMP JUMPDEST PUSH0 PUSH1 0x20 DUP3 ADD SWAP1 POP DUP2 DUP2 SUB PUSH0 DUP4 ADD MSTORE PUSH2 0x38C DUP2 DUP5 PUSH2 0x33C JUMP JUMPDEST SWAP1 POP SWAP3 SWAP2 POP POP JUMP JUMPDEST PUSH0 DUP2 SWAP1 POP SWAP2 SWAP1 POP JUMP JUMPDEST PUSH2 0x3A6 DUP2 PUSH2 0x394 JUMP JUMPDEST DUP3 MSTORE POP POP JUMP JUMPDEST PUSH0 PUSH1 0x20 DUP3 ADD SWAP1 POP PUSH2 0x3BF PUSH0 DUP4 ADD DUP5 PUSH2 0x39D JUMP JUMPDEST SWAP3 SWAP2 POP POP JUMP JUMPDEST PUSH0 PUSH3 0xFFFFFF DUP3 AND SWAP1 POP SWAP2 SWAP1 POP JUMP JUMPDEST PUSH2 0x3DC DUP2 PUSH2 0x3C5 JUMP JUMPDEST DUP3 MSTORE POP POP JUMP JUMPDEST PUSH0 PUSH1 0x20 DUP3 ADD SWAP1 POP PUSH2 0x3F5 PUSH0 DUP4 ADD DUP5 PUSH2 0x3D3 JUMP JUMPDEST SWAP3 SWAP2 POP POP JUMP JUMPDEST PUSH0 PUSH0 REVERT JUMPDEST PUSH0 PUSH2 0xFFFF DUP3 AND SWAP1 POP SWAP2 SWAP1 POP JUMP JUMPDEST PUSH2 0x415 DUP2 PUSH2 0x3FF JUMP JUMPDEST DUP2 EQ PUSH2 0x41F JUMPI PUSH0 PUSH0 REVERT JUMPDEST POP JUMP JUMPDEST PUSH0 DUP2 CALLDATALOAD SWAP1 POP PUSH2 0x430 DUP2 PUSH2 0x40C JUMP JUMPDEST SWAP3 SWAP2 POP POP JUMP JUMPDEST PUSH0 PUSH1 0x20 DUP3 DUP5 SUB SLT ISZERO PUSH2 0x44B JUMPI PUSH2 0x44A PUSH2 0x3FB JUMP JUMPDEST JUMPDEST PUSH0 PUSH2 0x458 DUP5 DUP3 DUP6 ADD PUSH2 0x422 JUMP JUMPDEST SWAP2 POP POP SWAP3 SWAP2 POP POP JUMP JUMPDEST PUSH2 0x46A DUP2 PUSH2 0x3FF JUMP JUMPDEST DUP3 MSTORE POP POP JUMP JUMPDEST PUSH0 PUSH1 0x20 DUP3 ADD SWAP1 POP PUSH2 0x483 PUSH0 DUP4 ADD DUP5 PUSH2 0x461 JUMP JUMPDEST SWAP3 SWAP2 POP POP JUMP JUMPDEST PUSH2 0x492 DUP2 PUSH2 0x394 JUMP JUMPDEST DUP2 EQ PUSH2 0x49C JUMPI PUSH0 PUSH0 REVERT JUMPDEST POP JUMP JUMPDEST PUSH0 DUP2 CALLDATALOAD SWAP1 POP PUSH2 0x4AD DUP2 PUSH2 0x489 JUMP JUMPDEST SWAP3 SWAP2 POP POP JUMP JUMPDEST PUSH0 PUSH1 0x20 DUP3 DUP5 SUB SLT ISZERO PUSH2 0x4C8 JUMPI PUSH2 0x4C7 PUSH2 0x3FB JUMP JUMPDEST JUMPDEST PUSH0 PUSH2 0x4D5 DUP5 DUP3 DUP6 ADD PUSH2 0x49F JUMP JUMPDEST SWAP2 POP POP SWAP3 SWAP2 POP POP JUMP JUMPDEST PUSH32 0x4E487B7100000000000000000000000000000000000000000000000000000000 PUSH0 MSTORE PUSH1 0x22 PUSH1 0x4 MSTORE PUSH1 0x24 PUSH0 REVERT JUMPDEST PUSH0 PUSH1 0x2 DUP3 DIV SWAP1 POP PUSH1 0x1 DUP3 AND DUP1 PUSH2 0x522 JUMPI PUSH1 0x7F DUP3 AND SWAP2 POP JUMPDEST PUSH1 0x20 DUP3 LT DUP2 SUB PUSH2 0x535 JUMPI PUSH2 0x534 PUSH2 0x4DE JUMP JUMPDEST JUMPDEST POP SWAP2 SWAP1 POP JUMP JUMPDEST PUSH32 0x546F6F206D616E79207368617265730000000000000000000000000000000000 PUSH0 DUP3 ADD MSTORE POP JUMP JUMPDEST PUSH0 PUSH2 0x56F PUSH1 0xF DUP4 PUSH2 0x30E JUMP JUMPDEST SWAP2 POP PUSH2 0x57A DUP3 PUSH2 0x53B JUMP JUMPDEST PUSH1 0x20 DUP3 ADD SWAP1 POP SWAP2 SWAP1 POP JUMP JUMPDEST PUSH0 PUSH1 0x20 DUP3 ADD SWAP1 POP DUP2 DUP2 SUB PUSH0 DUP4 ADD MSTORE PUSH2 0x59C DUP2 PUSH2 0x563 JUMP JUMPDEST SWAP1 POP SWAP2 SWAP1 POP JUMP JUMPDEST PUSH32 0x4E487B7100000000000000000000000000000000000000000000000000000000 PUSH0 MSTORE PUSH1 0x11 PUSH1 0x4 MSTORE PUSH1 0x24 PUSH0 REVERT JUMPDEST PUSH0 PUSH2 0x5DA DUP3 PUSH2 0x3FF JUMP JUMPDEST SWAP2 POP PUSH2 0x5E5 DUP4 PUSH2 0x3FF JUMP JUMPDEST SWAP3 POP DUP3 DUP3 ADD SWAP1 POP PUSH2 0xFFFF DUP2 GT ISZERO PUSH2 0x5FF JUMPI PUSH2 0x5FE PUSH2 0x5A3 JUMP JUMPDEST JUMPDEST SWAP3 SWAP2 POP POP JUMP INVALID LOG2 PUSH5 0x6970667358 0x22 SLT KECCAK256 SELFDESTRUCT MSTORE8 0xE3 PC SSTORE GT 0xC7 0x4B PUSH18 0xC6F26780ABEEA4160C4D75CE52B64CD8D277 PUSH1 0x8F 0xB0 0xAD POP PUSH5 0x736F6C6343 STOP ADDMOD SHR STOP CALLER "
				},
				"gasEstimates": {
					"creation": {
						"codeDepositCost": "319000",
						"executionCost": "infinite",
						"totalCost": "infinite"
					},
					"external": {
						"checkForPacking(uint256)": "infinite",
						"debugResetShares()": "24408",
						"grantShares(uint16)": "infinite",
						"idNumber()": "2448",
						"name()": "infinite",
						"viewSalary()": "2568",
						"viewShares()": "2516"
					}
				},
				"methodIdentifiers": {
					"checkForPacking(uint256)": "8f6a861a",
					"debugResetShares()": "4c764809",
					"grantShares(uint16)": "52c98689",
					"idNumber()": "3f83ea3b",
					"name()": "06fdde03",
					"viewSalary()": "49574402",
					"viewShares()": "6d45e2a5"
				}
			},
			"storageLayout": {
				"storage": [
					{
						"astId": 8,
						"contract": "contracts/EmployeeStorage.sol:EmployeeStorage",
						"label": "shares",
						"offset": 0,
						"slot": "0",
						"type": "t_uint16"
					},
					{
						"astId": 10,
						"contract": "contracts/EmployeeStorage.sol:EmployeeStorage",
						"label": "salary",
						"offset": 2,
						"slot": "0",
						"type": "t_uint24"
					},
					{
						"astId": 12,
						"contract": "contracts/EmployeeStorage.sol:EmployeeStorage",
						"label": "idNumber",
						"offset": 0,
						"slot": "1",
						"type": "t_uint256"
					},
					{
						"astId": 14,
						"contract": "contracts/EmployeeStorage.sol:EmployeeStorage",
						"label": "name",
						"offset": 0,
						"slot": "2",
						"type": "t_string_storage"
					}
				],
				"types": {
					"t_string_storage": {
						"encoding": "bytes",
						"label": "string",
						"numberOfBytes": "32"
					},
					"t_uint16": {
						"encoding": "inplace",
						"label": "uint16",
						"numberOfBytes": "2"
					},
					"t_uint24": {
						"encoding": "inplace",
						"label": "uint24",
						"numberOfBytes": "3"
					},
					"t_uint256": {
						"encoding": "inplace",
						"label": "uint256",
						"numberOfBytes": "32"
					}
				}
			},
			"userdoc": {
				"kind": "user",
				"methods": {
					"checkForPacking(uint256)": {
						"notice": "Do not modify this function.  It is used to enable the unit test for this pin to check whether or not you have configured your storage variables to make use of packing. If you wish to cheat, simply modify this function to always return `0` I'm not your boss ¯\\_(ツ)_/¯ Fair warning though, if you do cheat, it will be on the blockchain having been deployed by your wallet....FOREVER!"
					},
					"debugResetShares()": {
						"notice": "Warning: Anyone can use this function at any time!"
					}
				},
				"version": 1
			}
		}
	}
}